{
	"for_while/tes1/test.sol": {
		"add2": {
			"abi": [
				{
					"inputs": [
						{
							"internalType": "uint256",
							"name": "_x",
							"type": "uint256"
						}
					],
					"name": "addto",
					"outputs": [
						{
							"internalType": "uint256",
							"name": "",
							"type": "uint256"
						}
					],
					"stateMutability": "pure",
					"type": "function"
				},
				{
					"inputs": [],
					"name": "ten",
					"outputs": [
						{
							"internalType": "uint256",
							"name": "",
							"type": "uint256"
						}
					],
					"stateMutability": "pure",
					"type": "function"
				}
			],
			"devdoc": {
				"kind": "dev",
				"methods": {},
				"version": 1
			},
			"evm": {
				"assembly": "    /* \"for_while/tes1/test.sol\":60:394  contract add2 {... */\n  mstore(0x40, 0x80)\n  callvalue\n  dup1\n  iszero\n  tag_1\n  jumpi\n  0x00\n  dup1\n  revert\ntag_1:\n  pop\n  dataSize(sub_0)\n  dup1\n  dataOffset(sub_0)\n  0x00\n  codecopy\n  0x00\n  return\nstop\n\nsub_0: assembly {\n        /* \"for_while/tes1/test.sol\":60:394  contract add2 {... */\n      mstore(0x40, 0x80)\n      callvalue\n      dup1\n      iszero\n      tag_1\n      jumpi\n      0x00\n      dup1\n      revert\n    tag_1:\n      pop\n      jumpi(tag_2, lt(calldatasize, 0x04))\n      shr(0xe0, calldataload(0x00))\n      dup1\n      0x643ceff9\n      eq\n      tag_3\n      jumpi\n      dup1\n      0xc2481025\n      eq\n      tag_4\n      jumpi\n    tag_2:\n      0x00\n      dup1\n      revert\n        /* \"for_while/tes1/test.sol\":255:391  function ten() public pure returns (uint){... */\n    tag_3:\n      tag_5\n      tag_6\n      jump\t// in\n    tag_5:\n      mload(0x40)\n      tag_7\n      swap2\n      swap1\n      tag_8\n      jump\t// in\n    tag_7:\n      mload(0x40)\n      dup1\n      swap2\n      sub\n      swap1\n      return\n        /* \"for_while/tes1/test.sol\":81:249  function addto(uint _x) public pure returns(uint){... */\n    tag_4:\n      tag_9\n      0x04\n      dup1\n      calldatasize\n      sub\n      dup2\n      add\n      swap1\n      tag_10\n      swap2\n      swap1\n      tag_11\n      jump\t// in\n    tag_10:\n      tag_12\n      jump\t// in\n    tag_9:\n      mload(0x40)\n      tag_13\n      swap2\n      swap1\n      tag_8\n      jump\t// in\n    tag_13:\n      mload(0x40)\n      dup1\n      swap2\n      sub\n      swap1\n      return\n        /* \"for_while/tes1/test.sol\":255:391  function ten() public pure returns (uint){... */\n    tag_6:\n        /* \"for_while/tes1/test.sol\":291:295  uint */\n      0x00\n        /* \"for_while/tes1/test.sol\":307:313  uint a */\n      dup1\n        /* \"for_while/tes1/test.sol\":324:365  while(a<10){... */\n    tag_15:\n        /* \"for_while/tes1/test.sol\":332:334  10 */\n      0x0a\n        /* \"for_while/tes1/test.sol\":330:331  a */\n      dup2\n        /* \"for_while/tes1/test.sol\":330:334  a<10 */\n      lt\n        /* \"for_while/tes1/test.sol\":324:365  while(a<10){... */\n      iszero\n      tag_16\n      jumpi\n        /* \"for_while/tes1/test.sol\":350:353  a++ */\n      dup1\n      dup1\n      tag_17\n      swap1\n      tag_18\n      jump\t// in\n    tag_17:\n      swap2\n      pop\n      pop\n        /* \"for_while/tes1/test.sol\":324:365  while(a<10){... */\n      jump(tag_15)\n    tag_16:\n        /* \"for_while/tes1/test.sol\":382:383  a */\n      dup1\n        /* \"for_while/tes1/test.sol\":375:383  return a */\n      swap2\n      pop\n      pop\n        /* \"for_while/tes1/test.sol\":255:391  function ten() public pure returns (uint){... */\n      swap1\n      jump\t// out\n        /* \"for_while/tes1/test.sol\":81:249  function addto(uint _x) public pure returns(uint){... */\n    tag_12:\n        /* \"for_while/tes1/test.sol\":125:129  uint */\n      0x00\n        /* \"for_while/tes1/test.sol\":141:150  uint numa */\n      dup1\n        /* \"for_while/tes1/test.sol\":165:171  uint i */\n      0x00\n        /* \"for_while/tes1/test.sol\":161:220  for(uint i;i <= _x;i++){... */\n    tag_20:\n        /* \"for_while/tes1/test.sol\":177:179  _x */\n      dup4\n        /* \"for_while/tes1/test.sol\":172:173  i */\n      dup2\n        /* \"for_while/tes1/test.sol\":172:179  i <= _x */\n      gt\n        /* \"for_while/tes1/test.sol\":161:220  for(uint i;i <= _x;i++){... */\n      tag_21\n      jumpi\n        /* \"for_while/tes1/test.sol\":207:208  i */\n      dup1\n        /* \"for_while/tes1/test.sol\":199:208  numa += i */\n      dup3\n      tag_23\n      swap2\n      swap1\n      tag_24\n      jump\t// in\n    tag_23:\n      swap2\n      pop\n        /* \"for_while/tes1/test.sol\":180:183  i++ */\n      dup1\n      dup1\n      tag_25\n      swap1\n      tag_18\n      jump\t// in\n    tag_25:\n      swap2\n      pop\n      pop\n        /* \"for_while/tes1/test.sol\":161:220  for(uint i;i <= _x;i++){... */\n      jump(tag_20)\n    tag_21:\n      pop\n        /* \"for_while/tes1/test.sol\":237:241  numa */\n      dup1\n        /* \"for_while/tes1/test.sol\":230:241  return numa */\n      swap2\n      pop\n      pop\n        /* \"for_while/tes1/test.sol\":81:249  function addto(uint _x) public pure returns(uint){... */\n      swap2\n      swap1\n      pop\n      jump\t// out\n        /* \"#utility.yul\":7:84   */\n    tag_26:\n        /* \"#utility.yul\":44:51   */\n      0x00\n        /* \"#utility.yul\":73:78   */\n      dup2\n        /* \"#utility.yul\":62:78   */\n      swap1\n      pop\n        /* \"#utility.yul\":7:84   */\n      swap2\n      swap1\n      pop\n      jump\t// out\n        /* \"#utility.yul\":90:208   */\n    tag_27:\n        /* \"#utility.yul\":177:201   */\n      tag_37\n        /* \"#utility.yul\":195:200   */\n      dup2\n        /* \"#utility.yul\":177:201   */\n      tag_26\n      jump\t// in\n    tag_37:\n        /* \"#utility.yul\":172:175   */\n      dup3\n        /* \"#utility.yul\":165:202   */\n      mstore\n        /* \"#utility.yul\":90:208   */\n      pop\n      pop\n      jump\t// out\n        /* \"#utility.yul\":214:436   */\n    tag_8:\n        /* \"#utility.yul\":307:311   */\n      0x00\n        /* \"#utility.yul\":345:347   */\n      0x20\n        /* \"#utility.yul\":334:343   */\n      dup3\n        /* \"#utility.yul\":330:348   */\n      add\n        /* \"#utility.yul\":322:348   */\n      swap1\n      pop\n        /* \"#utility.yul\":358:429   */\n      tag_39\n        /* \"#utility.yul\":426:427   */\n      0x00\n        /* \"#utility.yul\":415:424   */\n      dup4\n        /* \"#utility.yul\":411:428   */\n      add\n        /* \"#utility.yul\":402:408   */\n      dup5\n        /* \"#utility.yul\":358:429   */\n      tag_27\n      jump\t// in\n    tag_39:\n        /* \"#utility.yul\":214:436   */\n      swap3\n      swap2\n      pop\n      pop\n      jump\t// out\n        /* \"#utility.yul\":523:640   */\n    tag_29:\n        /* \"#utility.yul\":632:633   */\n      0x00\n        /* \"#utility.yul\":629:630   */\n      dup1\n        /* \"#utility.yul\":622:634   */\n      revert\n        /* \"#utility.yul\":769:891   */\n    tag_31:\n        /* \"#utility.yul\":842:866   */\n      tag_44\n        /* \"#utility.yul\":860:865   */\n      dup2\n        /* \"#utility.yul\":842:866   */\n      tag_26\n      jump\t// in\n    tag_44:\n        /* \"#utility.yul\":835:840   */\n      dup2\n        /* \"#utility.yul\":832:867   */\n      eq\n        /* \"#utility.yul\":822:885   */\n      tag_45\n      jumpi\n        /* \"#utility.yul\":881:882   */\n      0x00\n        /* \"#utility.yul\":878:879   */\n      dup1\n        /* \"#utility.yul\":871:883   */\n      revert\n        /* \"#utility.yul\":822:885   */\n    tag_45:\n        /* \"#utility.yul\":769:891   */\n      pop\n      jump\t// out\n        /* \"#utility.yul\":897:1036   */\n    tag_32:\n        /* \"#utility.yul\":943:948   */\n      0x00\n        /* \"#utility.yul\":981:987   */\n      dup2\n        /* \"#utility.yul\":968:988   */\n      calldataload\n        /* \"#utility.yul\":959:988   */\n      swap1\n      pop\n        /* \"#utility.yul\":997:1030   */\n      tag_47\n        /* \"#utility.yul\":1024:1029   */\n      dup2\n        /* \"#utility.yul\":997:1030   */\n      tag_31\n      jump\t// in\n    tag_47:\n        /* \"#utility.yul\":897:1036   */\n      swap3\n      swap2\n      pop\n      pop\n      jump\t// out\n        /* \"#utility.yul\":1042:1371   */\n    tag_11:\n        /* \"#utility.yul\":1101:1107   */\n      0x00\n        /* \"#utility.yul\":1150:1152   */\n      0x20\n        /* \"#utility.yul\":1138:1147   */\n      dup3\n        /* \"#utility.yul\":1129:1136   */\n      dup5\n        /* \"#utility.yul\":1125:1148   */\n      sub\n        /* \"#utility.yul\":1121:1153   */\n      slt\n        /* \"#utility.yul\":1118:1237   */\n      iszero\n      tag_49\n      jumpi\n        /* \"#utility.yul\":1156:1235   */\n      tag_50\n      tag_29\n      jump\t// in\n    tag_50:\n        /* \"#utility.yul\":1118:1237   */\n    tag_49:\n        /* \"#utility.yul\":1276:1277   */\n      0x00\n        /* \"#utility.yul\":1301:1354   */\n      tag_51\n        /* \"#utility.yul\":1346:1353   */\n      dup5\n        /* \"#utility.yul\":1337:1343   */\n      dup3\n        /* \"#utility.yul\":1326:1335   */\n      dup6\n        /* \"#utility.yul\":1322:1344   */\n      add\n        /* \"#utility.yul\":1301:1354   */\n      tag_32\n      jump\t// in\n    tag_51:\n        /* \"#utility.yul\":1291:1354   */\n      swap2\n      pop\n        /* \"#utility.yul\":1247:1364   */\n      pop\n        /* \"#utility.yul\":1042:1371   */\n      swap3\n      swap2\n      pop\n      pop\n      jump\t// out\n        /* \"#utility.yul\":1377:1557   */\n    tag_33:\n        /* \"#utility.yul\":1425:1502   */\n      0x4e487b7100000000000000000000000000000000000000000000000000000000\n        /* \"#utility.yul\":1422:1423   */\n      0x00\n        /* \"#utility.yul\":1415:1503   */\n      mstore\n        /* \"#utility.yul\":1522:1526   */\n      0x11\n        /* \"#utility.yul\":1519:1520   */\n      0x04\n        /* \"#utility.yul\":1512:1527   */\n      mstore\n        /* \"#utility.yul\":1546:1550   */\n      0x24\n        /* \"#utility.yul\":1543:1544   */\n      0x00\n        /* \"#utility.yul\":1536:1551   */\n      revert\n        /* \"#utility.yul\":1563:1796   */\n    tag_18:\n        /* \"#utility.yul\":1602:1605   */\n      0x00\n        /* \"#utility.yul\":1625:1649   */\n      tag_54\n        /* \"#utility.yul\":1643:1648   */\n      dup3\n        /* \"#utility.yul\":1625:1649   */\n      tag_26\n      jump\t// in\n    tag_54:\n        /* \"#utility.yul\":1616:1649   */\n      swap2\n      pop\n        /* \"#utility.yul\":1671:1737   */\n      0xffffffffffffffffffffffffffffffffffffffffffffffffffffffffffffffff\n        /* \"#utility.yul\":1664:1669   */\n      dup3\n        /* \"#utility.yul\":1661:1738   */\n      sub\n        /* \"#utility.yul\":1658:1761   */\n      tag_55\n      jumpi\n        /* \"#utility.yul\":1741:1759   */\n      tag_56\n      tag_33\n      jump\t// in\n    tag_56:\n        /* \"#utility.yul\":1658:1761   */\n    tag_55:\n        /* \"#utility.yul\":1788:1789   */\n      0x01\n        /* \"#utility.yul\":1781:1786   */\n      dup3\n        /* \"#utility.yul\":1777:1790   */\n      add\n        /* \"#utility.yul\":1770:1790   */\n      swap1\n      pop\n        /* \"#utility.yul\":1563:1796   */\n      swap2\n      swap1\n      pop\n      jump\t// out\n        /* \"#utility.yul\":1802:1993   */\n    tag_24:\n        /* \"#utility.yul\":1842:1845   */\n      0x00\n        /* \"#utility.yul\":1861:1881   */\n      tag_58\n        /* \"#utility.yul\":1879:1880   */\n      dup3\n        /* \"#utility.yul\":1861:1881   */\n      tag_26\n      jump\t// in\n    tag_58:\n        /* \"#utility.yul\":1856:1881   */\n      swap2\n      pop\n        /* \"#utility.yul\":1895:1915   */\n      tag_59\n        /* \"#utility.yul\":1913:1914   */\n      dup4\n        /* \"#utility.yul\":1895:1915   */\n      tag_26\n      jump\t// in\n    tag_59:\n        /* \"#utility.yul\":1890:1915   */\n      swap3\n      pop\n        /* \"#utility.yul\":1938:1939   */\n      dup3\n        /* \"#utility.yul\":1935:1936   */\n      dup3\n        /* \"#utility.yul\":1931:1940   */\n      add\n        /* \"#utility.yul\":1924:1940   */\n      swap1\n      pop\n        /* \"#utility.yul\":1959:1962   */\n      dup1\n        /* \"#utility.yul\":1956:1957   */\n      dup3\n        /* \"#utility.yul\":1953:1963   */\n      gt\n        /* \"#utility.yul\":1950:1986   */\n      iszero\n      tag_60\n      jumpi\n        /* \"#utility.yul\":1966:1984   */\n      tag_61\n      tag_33\n      jump\t// in\n    tag_61:\n        /* \"#utility.yul\":1950:1986   */\n    tag_60:\n        /* \"#utility.yul\":1802:1993   */\n      swap3\n      swap2\n      pop\n      pop\n      jump\t// out\n\n    auxdata: 0xa26469706673582212206806418f0135c0d3386163c8c922beb26f0ae370f22a034375a55dd20a7e69ac64736f6c634300081a0033\n}\n",
				"bytecode": {
					"linkReferences": {},
					"object": "6080604052348015600e575f80fd5b506102498061001c5f395ff3fe608060405234801561000f575f80fd5b5060043610610034575f3560e01c8063643ceff914610038578063c248102514610056575b5f80fd5b610040610086565b60405161004d91906100fa565b60405180910390f35b610070600480360381019061006b9190610141565b6100ac565b60405161007d91906100fa565b60405180910390f35b5f805b600a8110156100a557808061009d90610199565b915050610089565b8091505090565b5f805f5b8381116100d85780826100c391906101e0565b915080806100d090610199565b9150506100b0565b5080915050919050565b5f819050919050565b6100f4816100e2565b82525050565b5f60208201905061010d5f8301846100eb565b92915050565b5f80fd5b610120816100e2565b811461012a575f80fd5b50565b5f8135905061013b81610117565b92915050565b5f6020828403121561015657610155610113565b5b5f6101638482850161012d565b91505092915050565b7f4e487b71000000000000000000000000000000000000000000000000000000005f52601160045260245ffd5b5f6101a3826100e2565b91507fffffffffffffffffffffffffffffffffffffffffffffffffffffffffffffffff82036101d5576101d461016c565b5b600182019050919050565b5f6101ea826100e2565b91506101f5836100e2565b925082820190508082111561020d5761020c61016c565b5b9291505056fea26469706673582212206806418f0135c0d3386163c8c922beb26f0ae370f22a034375a55dd20a7e69ac64736f6c634300081a0033",
					"opcodes": "PUSH1 0x80 PUSH1 0x40 MSTORE CALLVALUE DUP1 ISZERO PUSH1 0xE JUMPI PUSH0 DUP1 REVERT JUMPDEST POP PUSH2 0x249 DUP1 PUSH2 0x1C PUSH0 CODECOPY PUSH0 RETURN INVALID PUSH1 0x80 PUSH1 0x40 MSTORE CALLVALUE DUP1 ISZERO PUSH2 0xF JUMPI PUSH0 DUP1 REVERT JUMPDEST POP PUSH1 0x4 CALLDATASIZE LT PUSH2 0x34 JUMPI PUSH0 CALLDATALOAD PUSH1 0xE0 SHR DUP1 PUSH4 0x643CEFF9 EQ PUSH2 0x38 JUMPI DUP1 PUSH4 0xC2481025 EQ PUSH2 0x56 JUMPI JUMPDEST PUSH0 DUP1 REVERT JUMPDEST PUSH2 0x40 PUSH2 0x86 JUMP JUMPDEST PUSH1 0x40 MLOAD PUSH2 0x4D SWAP2 SWAP1 PUSH2 0xFA JUMP JUMPDEST PUSH1 0x40 MLOAD DUP1 SWAP2 SUB SWAP1 RETURN JUMPDEST PUSH2 0x70 PUSH1 0x4 DUP1 CALLDATASIZE SUB DUP2 ADD SWAP1 PUSH2 0x6B SWAP2 SWAP1 PUSH2 0x141 JUMP JUMPDEST PUSH2 0xAC JUMP JUMPDEST PUSH1 0x40 MLOAD PUSH2 0x7D SWAP2 SWAP1 PUSH2 0xFA JUMP JUMPDEST PUSH1 0x40 MLOAD DUP1 SWAP2 SUB SWAP1 RETURN JUMPDEST PUSH0 DUP1 JUMPDEST PUSH1 0xA DUP2 LT ISZERO PUSH2 0xA5 JUMPI DUP1 DUP1 PUSH2 0x9D SWAP1 PUSH2 0x199 JUMP JUMPDEST SWAP2 POP POP PUSH2 0x89 JUMP JUMPDEST DUP1 SWAP2 POP POP SWAP1 JUMP JUMPDEST PUSH0 DUP1 PUSH0 JUMPDEST DUP4 DUP2 GT PUSH2 0xD8 JUMPI DUP1 DUP3 PUSH2 0xC3 SWAP2 SWAP1 PUSH2 0x1E0 JUMP JUMPDEST SWAP2 POP DUP1 DUP1 PUSH2 0xD0 SWAP1 PUSH2 0x199 JUMP JUMPDEST SWAP2 POP POP PUSH2 0xB0 JUMP JUMPDEST POP DUP1 SWAP2 POP POP SWAP2 SWAP1 POP JUMP JUMPDEST PUSH0 DUP2 SWAP1 POP SWAP2 SWAP1 POP JUMP JUMPDEST PUSH2 0xF4 DUP2 PUSH2 0xE2 JUMP JUMPDEST DUP3 MSTORE POP POP JUMP JUMPDEST PUSH0 PUSH1 0x20 DUP3 ADD SWAP1 POP PUSH2 0x10D PUSH0 DUP4 ADD DUP5 PUSH2 0xEB JUMP JUMPDEST SWAP3 SWAP2 POP POP JUMP JUMPDEST PUSH0 DUP1 REVERT JUMPDEST PUSH2 0x120 DUP2 PUSH2 0xE2 JUMP JUMPDEST DUP2 EQ PUSH2 0x12A JUMPI PUSH0 DUP1 REVERT JUMPDEST POP JUMP JUMPDEST PUSH0 DUP2 CALLDATALOAD SWAP1 POP PUSH2 0x13B DUP2 PUSH2 0x117 JUMP JUMPDEST SWAP3 SWAP2 POP POP JUMP JUMPDEST PUSH0 PUSH1 0x20 DUP3 DUP5 SUB SLT ISZERO PUSH2 0x156 JUMPI PUSH2 0x155 PUSH2 0x113 JUMP JUMPDEST JUMPDEST PUSH0 PUSH2 0x163 DUP5 DUP3 DUP6 ADD PUSH2 0x12D JUMP JUMPDEST SWAP2 POP POP SWAP3 SWAP2 POP POP JUMP JUMPDEST PUSH32 0x4E487B7100000000000000000000000000000000000000000000000000000000 PUSH0 MSTORE PUSH1 0x11 PUSH1 0x4 MSTORE PUSH1 0x24 PUSH0 REVERT JUMPDEST PUSH0 PUSH2 0x1A3 DUP3 PUSH2 0xE2 JUMP JUMPDEST SWAP2 POP PUSH32 0xFFFFFFFFFFFFFFFFFFFFFFFFFFFFFFFFFFFFFFFFFFFFFFFFFFFFFFFFFFFFFFFF DUP3 SUB PUSH2 0x1D5 JUMPI PUSH2 0x1D4 PUSH2 0x16C JUMP JUMPDEST JUMPDEST PUSH1 0x1 DUP3 ADD SWAP1 POP SWAP2 SWAP1 POP JUMP JUMPDEST PUSH0 PUSH2 0x1EA DUP3 PUSH2 0xE2 JUMP JUMPDEST SWAP2 POP PUSH2 0x1F5 DUP4 PUSH2 0xE2 JUMP JUMPDEST SWAP3 POP DUP3 DUP3 ADD SWAP1 POP DUP1 DUP3 GT ISZERO PUSH2 0x20D JUMPI PUSH2 0x20C PUSH2 0x16C JUMP JUMPDEST JUMPDEST SWAP3 SWAP2 POP POP JUMP INVALID LOG2 PUSH5 0x6970667358 0x22 SLT KECCAK256 PUSH9 0x6418F0135C0D33861 PUSH4 0xC8C922BE 0xB2 PUSH16 0xAE370F22A034375A55DD20A7E69AC64 PUSH20 0x6F6C634300081A00330000000000000000000000 "
				},
				"gasEstimates": {
					"creation": {
						"codeDepositCost": "117000",
						"executionCost": "163",
						"totalCost": "117163"
					},
					"external": {
						"addto(uint256)": "infinite",
						"ten()": "infinite"
					}
				},
				"methodIdentifiers": {
					"addto(uint256)": "c2481025",
					"ten()": "643ceff9"
				}
			},
			"storageLayout": {
				"storage": [],
				"types": null
			},
			"userdoc": {
				"kind": "user",
				"methods": {},
				"version": 1
			}
		}
	}
}