{
	"test/test.sol": {
		"Hello": {
			"abi": [
				{
					"inputs": [
						{
							"internalType": "uint256",
							"name": "_id",
							"type": "uint256"
						}
					],
					"name": "say",
					"outputs": [
						{
							"internalType": "string",
							"name": "",
							"type": "string"
						}
					],
					"stateMutability": "view",
					"type": "function"
				},
				{
					"inputs": [
						{
							"internalType": "string",
							"name": "newh",
							"type": "string"
						},
						{
							"internalType": "uint256",
							"name": "_id",
							"type": "uint256"
						}
					],
					"name": "set",
					"outputs": [],
					"stateMutability": "nonpayable",
					"type": "function"
				}
			],
			"devdoc": {
				"kind": "dev",
				"methods": {},
				"version": 1
			},
			"evm": {
				"assembly": "    /* \"test/test.sol\":58:771  contract Hello {... */\n  mstore(0x40, 0x80)\n    /* \"test/test.sol\":80:109  string strvar = \"hello world\" */\n  mload(0x40)\n  dup1\n  0x40\n  add\n  0x40\n  mstore\n  dup1\n  0x0b\n  dup2\n  mstore\n  0x20\n  add\n  0x68656c6c6f20776f726c64000000000000000000000000000000000000000000\n  dup2\n  mstore\n  pop\n  0x00\n  swap1\n  dup2\n  tag_1\n  swap2\n  swap1\n  tag_2\n  jump\t// in\ntag_1:\n  pop\n    /* \"test/test.sol\":58:771  contract Hello {... */\n  callvalue\n  dup1\n  iszero\n  tag_3\n  jumpi\n  0x00\n  dup1\n  revert\ntag_3:\n  pop\n  jump(tag_4)\n    /* \"#utility.yul\":7:106   */\ntag_5:\n    /* \"#utility.yul\":59:65   */\n  0x00\n    /* \"#utility.yul\":93:98   */\n  dup2\n    /* \"#utility.yul\":87:99   */\n  mload\n    /* \"#utility.yul\":77:99   */\n  swap1\n  pop\n    /* \"#utility.yul\":7:106   */\n  swap2\n  swap1\n  pop\n  jump\t// out\n    /* \"#utility.yul\":112:292   */\ntag_6:\n    /* \"#utility.yul\":160:237   */\n  0x4e487b7100000000000000000000000000000000000000000000000000000000\n    /* \"#utility.yul\":157:158   */\n  0x00\n    /* \"#utility.yul\":150:238   */\n  mstore\n    /* \"#utility.yul\":257:261   */\n  0x41\n    /* \"#utility.yul\":254:255   */\n  0x04\n    /* \"#utility.yul\":247:262   */\n  mstore\n    /* \"#utility.yul\":281:285   */\n  0x24\n    /* \"#utility.yul\":278:279   */\n  0x00\n    /* \"#utility.yul\":271:286   */\n  revert\n    /* \"#utility.yul\":298:478   */\ntag_7:\n    /* \"#utility.yul\":346:423   */\n  0x4e487b7100000000000000000000000000000000000000000000000000000000\n    /* \"#utility.yul\":343:344   */\n  0x00\n    /* \"#utility.yul\":336:424   */\n  mstore\n    /* \"#utility.yul\":443:447   */\n  0x22\n    /* \"#utility.yul\":440:441   */\n  0x04\n    /* \"#utility.yul\":433:448   */\n  mstore\n    /* \"#utility.yul\":467:471   */\n  0x24\n    /* \"#utility.yul\":464:465   */\n  0x00\n    /* \"#utility.yul\":457:472   */\n  revert\n    /* \"#utility.yul\":484:804   */\ntag_8:\n    /* \"#utility.yul\":528:534   */\n  0x00\n    /* \"#utility.yul\":565:566   */\n  0x02\n    /* \"#utility.yul\":559:563   */\n  dup3\n    /* \"#utility.yul\":555:567   */\n  div\n    /* \"#utility.yul\":545:567   */\n  swap1\n  pop\n    /* \"#utility.yul\":612:613   */\n  0x01\n    /* \"#utility.yul\":606:610   */\n  dup3\n    /* \"#utility.yul\":602:614   */\n  and\n    /* \"#utility.yul\":633:651   */\n  dup1\n    /* \"#utility.yul\":623:704   */\n  tag_30\n  jumpi\n    /* \"#utility.yul\":689:693   */\n  0x7f\n    /* \"#utility.yul\":681:687   */\n  dup3\n    /* \"#utility.yul\":677:694   */\n  and\n    /* \"#utility.yul\":667:694   */\n  swap2\n  pop\n    /* \"#utility.yul\":623:704   */\ntag_30:\n    /* \"#utility.yul\":751:753   */\n  0x20\n    /* \"#utility.yul\":743:749   */\n  dup3\n    /* \"#utility.yul\":740:754   */\n  lt\n    /* \"#utility.yul\":720:738   */\n  dup2\n    /* \"#utility.yul\":717:755   */\n  sub\n    /* \"#utility.yul\":714:798   */\n  tag_31\n  jumpi\n    /* \"#utility.yul\":770:788   */\n  tag_32\n  tag_7\n  jump\t// in\ntag_32:\n    /* \"#utility.yul\":714:798   */\ntag_31:\n    /* \"#utility.yul\":535:804   */\n  pop\n    /* \"#utility.yul\":484:804   */\n  swap2\n  swap1\n  pop\n  jump\t// out\n    /* \"#utility.yul\":810:951   */\ntag_9:\n    /* \"#utility.yul\":859:863   */\n  0x00\n    /* \"#utility.yul\":882:885   */\n  dup2\n    /* \"#utility.yul\":874:885   */\n  swap1\n  pop\n    /* \"#utility.yul\":905:908   */\n  dup2\n    /* \"#utility.yul\":902:903   */\n  0x00\n    /* \"#utility.yul\":895:909   */\n  mstore\n    /* \"#utility.yul\":939:943   */\n  0x20\n    /* \"#utility.yul\":936:937   */\n  0x00\n    /* \"#utility.yul\":926:944   */\n  keccak256\n    /* \"#utility.yul\":918:944   */\n  swap1\n  pop\n    /* \"#utility.yul\":810:951   */\n  swap2\n  swap1\n  pop\n  jump\t// out\n    /* \"#utility.yul\":957:1050   */\ntag_10:\n    /* \"#utility.yul\":994:1000   */\n  0x00\n    /* \"#utility.yul\":1041:1043   */\n  0x20\n    /* \"#utility.yul\":1036:1038   */\n  0x1f\n    /* \"#utility.yul\":1029:1034   */\n  dup4\n    /* \"#utility.yul\":1025:1039   */\n  add\n    /* \"#utility.yul\":1021:1044   */\n  div\n    /* \"#utility.yul\":1011:1044   */\n  swap1\n  pop\n    /* \"#utility.yul\":957:1050   */\n  swap2\n  swap1\n  pop\n  jump\t// out\n    /* \"#utility.yul\":1056:1163   */\ntag_11:\n    /* \"#utility.yul\":1100:1108   */\n  0x00\n    /* \"#utility.yul\":1150:1155   */\n  dup3\n    /* \"#utility.yul\":1144:1148   */\n  dup3\n    /* \"#utility.yul\":1140:1156   */\n  shl\n    /* \"#utility.yul\":1119:1156   */\n  swap1\n  pop\n    /* \"#utility.yul\":1056:1163   */\n  swap3\n  swap2\n  pop\n  pop\n  jump\t// out\n    /* \"#utility.yul\":1169:1562   */\ntag_12:\n    /* \"#utility.yul\":1238:1244   */\n  0x00\n    /* \"#utility.yul\":1288:1289   */\n  0x08\n    /* \"#utility.yul\":1276:1286   */\n  dup4\n    /* \"#utility.yul\":1272:1290   */\n  mul\n    /* \"#utility.yul\":1311:1408   */\n  tag_37\n    /* \"#utility.yul\":1341:1407   */\n  0xffffffffffffffffffffffffffffffffffffffffffffffffffffffffffffffff\n    /* \"#utility.yul\":1330:1339   */\n  dup3\n    /* \"#utility.yul\":1311:1408   */\n  tag_11\n  jump\t// in\ntag_37:\n    /* \"#utility.yul\":1429:1468   */\n  tag_38\n    /* \"#utility.yul\":1459:1467   */\n  dup7\n    /* \"#utility.yul\":1448:1457   */\n  dup4\n    /* \"#utility.yul\":1429:1468   */\n  tag_11\n  jump\t// in\ntag_38:\n    /* \"#utility.yul\":1417:1468   */\n  swap6\n  pop\n    /* \"#utility.yul\":1501:1505   */\n  dup1\n    /* \"#utility.yul\":1497:1506   */\n  not\n    /* \"#utility.yul\":1490:1495   */\n  dup5\n    /* \"#utility.yul\":1486:1507   */\n  and\n    /* \"#utility.yul\":1477:1507   */\n  swap4\n  pop\n    /* \"#utility.yul\":1550:1554   */\n  dup1\n    /* \"#utility.yul\":1540:1548   */\n  dup7\n    /* \"#utility.yul\":1536:1555   */\n  and\n    /* \"#utility.yul\":1529:1534   */\n  dup5\n    /* \"#utility.yul\":1526:1556   */\n  or\n    /* \"#utility.yul\":1516:1556   */\n  swap3\n  pop\n    /* \"#utility.yul\":1245:1562   */\n  pop\n  pop\n    /* \"#utility.yul\":1169:1562   */\n  swap4\n  swap3\n  pop\n  pop\n  pop\n  jump\t// out\n    /* \"#utility.yul\":1568:1645   */\ntag_13:\n    /* \"#utility.yul\":1605:1612   */\n  0x00\n    /* \"#utility.yul\":1634:1639   */\n  dup2\n    /* \"#utility.yul\":1623:1639   */\n  swap1\n  pop\n    /* \"#utility.yul\":1568:1645   */\n  swap2\n  swap1\n  pop\n  jump\t// out\n    /* \"#utility.yul\":1651:1711   */\ntag_14:\n    /* \"#utility.yul\":1679:1682   */\n  0x00\n    /* \"#utility.yul\":1700:1705   */\n  dup2\n    /* \"#utility.yul\":1693:1705   */\n  swap1\n  pop\n    /* \"#utility.yul\":1651:1711   */\n  swap2\n  swap1\n  pop\n  jump\t// out\n    /* \"#utility.yul\":1717:1859   */\ntag_15:\n    /* \"#utility.yul\":1767:1776   */\n  0x00\n    /* \"#utility.yul\":1800:1853   */\n  tag_42\n    /* \"#utility.yul\":1818:1852   */\n  tag_43\n    /* \"#utility.yul\":1827:1851   */\n  tag_44\n    /* \"#utility.yul\":1845:1850   */\n  dup5\n    /* \"#utility.yul\":1827:1851   */\n  tag_13\n  jump\t// in\ntag_44:\n    /* \"#utility.yul\":1818:1852   */\n  tag_14\n  jump\t// in\ntag_43:\n    /* \"#utility.yul\":1800:1853   */\n  tag_13\n  jump\t// in\ntag_42:\n    /* \"#utility.yul\":1787:1853   */\n  swap1\n  pop\n    /* \"#utility.yul\":1717:1859   */\n  swap2\n  swap1\n  pop\n  jump\t// out\n    /* \"#utility.yul\":1865:1940   */\ntag_16:\n    /* \"#utility.yul\":1908:1911   */\n  0x00\n    /* \"#utility.yul\":1929:1934   */\n  dup2\n    /* \"#utility.yul\":1922:1934   */\n  swap1\n  pop\n    /* \"#utility.yul\":1865:1940   */\n  swap2\n  swap1\n  pop\n  jump\t// out\n    /* \"#utility.yul\":1946:2215   */\ntag_17:\n    /* \"#utility.yul\":2056:2095   */\n  tag_47\n    /* \"#utility.yul\":2087:2094   */\n  dup4\n    /* \"#utility.yul\":2056:2095   */\n  tag_15\n  jump\t// in\ntag_47:\n    /* \"#utility.yul\":2117:2208   */\n  tag_48\n    /* \"#utility.yul\":2166:2207   */\n  tag_49\n    /* \"#utility.yul\":2190:2206   */\n  dup3\n    /* \"#utility.yul\":2166:2207   */\n  tag_16\n  jump\t// in\ntag_49:\n    /* \"#utility.yul\":2158:2164   */\n  dup5\n    /* \"#utility.yul\":2151:2155   */\n  dup5\n    /* \"#utility.yul\":2145:2156   */\n  sload\n    /* \"#utility.yul\":2117:2208   */\n  tag_12\n  jump\t// in\ntag_48:\n    /* \"#utility.yul\":2111:2115   */\n  dup3\n    /* \"#utility.yul\":2104:2209   */\n  sstore\n    /* \"#utility.yul\":2022:2215   */\n  pop\n    /* \"#utility.yul\":1946:2215   */\n  pop\n  pop\n  pop\n  jump\t// out\n    /* \"#utility.yul\":2221:2294   */\ntag_18:\n    /* \"#utility.yul\":2266:2269   */\n  0x00\n    /* \"#utility.yul\":2221:2294   */\n  swap1\n  jump\t// out\n    /* \"#utility.yul\":2300:2489   */\ntag_19:\n    /* \"#utility.yul\":2377:2409   */\n  tag_52\n  tag_18\n  jump\t// in\ntag_52:\n    /* \"#utility.yul\":2418:2483   */\n  tag_53\n    /* \"#utility.yul\":2476:2482   */\n  dup2\n    /* \"#utility.yul\":2468:2474   */\n  dup5\n    /* \"#utility.yul\":2462:2466   */\n  dup5\n    /* \"#utility.yul\":2418:2483   */\n  tag_17\n  jump\t// in\ntag_53:\n    /* \"#utility.yul\":2353:2489   */\n  pop\n    /* \"#utility.yul\":2300:2489   */\n  pop\n  pop\n  jump\t// out\n    /* \"#utility.yul\":2495:2681   */\ntag_20:\n    /* \"#utility.yul\":2555:2675   */\ntag_55:\n    /* \"#utility.yul\":2572:2575   */\n  dup2\n    /* \"#utility.yul\":2565:2570   */\n  dup2\n    /* \"#utility.yul\":2562:2576   */\n  lt\n    /* \"#utility.yul\":2555:2675   */\n  iszero\n  tag_57\n  jumpi\n    /* \"#utility.yul\":2626:2665   */\n  tag_58\n    /* \"#utility.yul\":2663:2664   */\n  0x00\n    /* \"#utility.yul\":2656:2661   */\n  dup3\n    /* \"#utility.yul\":2626:2665   */\n  tag_19\n  jump\t// in\ntag_58:\n    /* \"#utility.yul\":2599:2600   */\n  0x01\n    /* \"#utility.yul\":2592:2597   */\n  dup2\n    /* \"#utility.yul\":2588:2601   */\n  add\n    /* \"#utility.yul\":2579:2601   */\n  swap1\n  pop\n    /* \"#utility.yul\":2555:2675   */\n  jump(tag_55)\ntag_57:\n    /* \"#utility.yul\":2495:2681   */\n  pop\n  pop\n  jump\t// out\n    /* \"#utility.yul\":2687:3230   */\ntag_21:\n    /* \"#utility.yul\":2788:2790   */\n  0x1f\n    /* \"#utility.yul\":2783:2786   */\n  dup3\n    /* \"#utility.yul\":2780:2791   */\n  gt\n    /* \"#utility.yul\":2777:3223   */\n  iszero\n  tag_60\n  jumpi\n    /* \"#utility.yul\":2822:2860   */\n  tag_61\n    /* \"#utility.yul\":2854:2859   */\n  dup2\n    /* \"#utility.yul\":2822:2860   */\n  tag_9\n  jump\t// in\ntag_61:\n    /* \"#utility.yul\":2906:2935   */\n  tag_62\n    /* \"#utility.yul\":2924:2934   */\n  dup5\n    /* \"#utility.yul\":2906:2935   */\n  tag_10\n  jump\t// in\ntag_62:\n    /* \"#utility.yul\":2896:2904   */\n  dup2\n    /* \"#utility.yul\":2892:2936   */\n  add\n    /* \"#utility.yul\":3089:3091   */\n  0x20\n    /* \"#utility.yul\":3077:3087   */\n  dup6\n    /* \"#utility.yul\":3074:3092   */\n  lt\n    /* \"#utility.yul\":3071:3120   */\n  iszero\n  tag_63\n  jumpi\n    /* \"#utility.yul\":3110:3118   */\n  dup2\n    /* \"#utility.yul\":3095:3118   */\n  swap1\n  pop\n    /* \"#utility.yul\":3071:3120   */\ntag_63:\n    /* \"#utility.yul\":3133:3213   */\n  tag_64\n    /* \"#utility.yul\":3189:3211   */\n  tag_65\n    /* \"#utility.yul\":3207:3210   */\n  dup6\n    /* \"#utility.yul\":3189:3211   */\n  tag_10\n  jump\t// in\ntag_65:\n    /* \"#utility.yul\":3179:3187   */\n  dup4\n    /* \"#utility.yul\":3175:3212   */\n  add\n    /* \"#utility.yul\":3162:3173   */\n  dup3\n    /* \"#utility.yul\":3133:3213   */\n  tag_20\n  jump\t// in\ntag_64:\n    /* \"#utility.yul\":2792:3223   */\n  pop\n  pop\n    /* \"#utility.yul\":2777:3223   */\ntag_60:\n    /* \"#utility.yul\":2687:3230   */\n  pop\n  pop\n  pop\n  jump\t// out\n    /* \"#utility.yul\":3236:3353   */\ntag_22:\n    /* \"#utility.yul\":3290:3298   */\n  0x00\n    /* \"#utility.yul\":3340:3345   */\n  dup3\n    /* \"#utility.yul\":3334:3338   */\n  dup3\n    /* \"#utility.yul\":3330:3346   */\n  shr\n    /* \"#utility.yul\":3309:3346   */\n  swap1\n  pop\n    /* \"#utility.yul\":3236:3353   */\n  swap3\n  swap2\n  pop\n  pop\n  jump\t// out\n    /* \"#utility.yul\":3359:3528   */\ntag_23:\n    /* \"#utility.yul\":3403:3409   */\n  0x00\n    /* \"#utility.yul\":3436:3487   */\n  tag_68\n    /* \"#utility.yul\":3484:3485   */\n  0x00\n    /* \"#utility.yul\":3480:3486   */\n  not\n    /* \"#utility.yul\":3472:3477   */\n  dup5\n    /* \"#utility.yul\":3469:3470   */\n  0x08\n    /* \"#utility.yul\":3465:3478   */\n  mul\n    /* \"#utility.yul\":3436:3487   */\n  tag_22\n  jump\t// in\ntag_68:\n    /* \"#utility.yul\":3432:3488   */\n  not\n    /* \"#utility.yul\":3517:3521   */\n  dup1\n    /* \"#utility.yul\":3511:3515   */\n  dup4\n    /* \"#utility.yul\":3507:3522   */\n  and\n    /* \"#utility.yul\":3497:3522   */\n  swap2\n  pop\n    /* \"#utility.yul\":3410:3528   */\n  pop\n    /* \"#utility.yul\":3359:3528   */\n  swap3\n  swap2\n  pop\n  pop\n  jump\t// out\n    /* \"#utility.yul\":3533:3828   */\ntag_24:\n    /* \"#utility.yul\":3609:3613   */\n  0x00\n    /* \"#utility.yul\":3755:3784   */\n  tag_70\n    /* \"#utility.yul\":3780:3783   */\n  dup4\n    /* \"#utility.yul\":3774:3778   */\n  dup4\n    /* \"#utility.yul\":3755:3784   */\n  tag_23\n  jump\t// in\ntag_70:\n    /* \"#utility.yul\":3747:3784   */\n  swap2\n  pop\n    /* \"#utility.yul\":3817:3820   */\n  dup3\n    /* \"#utility.yul\":3814:3815   */\n  0x02\n    /* \"#utility.yul\":3810:3821   */\n  mul\n    /* \"#utility.yul\":3804:3808   */\n  dup3\n    /* \"#utility.yul\":3801:3822   */\n  or\n    /* \"#utility.yul\":3793:3822   */\n  swap1\n  pop\n    /* \"#utility.yul\":3533:3828   */\n  swap3\n  swap2\n  pop\n  pop\n  jump\t// out\n    /* \"#utility.yul\":3833:5228   */\ntag_2:\n    /* \"#utility.yul\":3950:3987   */\n  tag_72\n    /* \"#utility.yul\":3983:3986   */\n  dup3\n    /* \"#utility.yul\":3950:3987   */\n  tag_5\n  jump\t// in\ntag_72:\n    /* \"#utility.yul\":4052:4070   */\n  0xffffffffffffffff\n    /* \"#utility.yul\":4044:4050   */\n  dup2\n    /* \"#utility.yul\":4041:4071   */\n  gt\n    /* \"#utility.yul\":4038:4094   */\n  iszero\n  tag_73\n  jumpi\n    /* \"#utility.yul\":4074:4092   */\n  tag_74\n  tag_6\n  jump\t// in\ntag_74:\n    /* \"#utility.yul\":4038:4094   */\ntag_73:\n    /* \"#utility.yul\":4118:4156   */\n  tag_75\n    /* \"#utility.yul\":4150:4154   */\n  dup3\n    /* \"#utility.yul\":4144:4155   */\n  sload\n    /* \"#utility.yul\":4118:4156   */\n  tag_8\n  jump\t// in\ntag_75:\n    /* \"#utility.yul\":4203:4270   */\n  tag_76\n    /* \"#utility.yul\":4263:4269   */\n  dup3\n    /* \"#utility.yul\":4255:4261   */\n  dup3\n    /* \"#utility.yul\":4249:4253   */\n  dup6\n    /* \"#utility.yul\":4203:4270   */\n  tag_21\n  jump\t// in\ntag_76:\n    /* \"#utility.yul\":4297:4298   */\n  0x00\n    /* \"#utility.yul\":4321:4325   */\n  0x20\n    /* \"#utility.yul\":4308:4325   */\n  swap1\n  pop\n    /* \"#utility.yul\":4353:4355   */\n  0x1f\n    /* \"#utility.yul\":4345:4351   */\n  dup4\n    /* \"#utility.yul\":4342:4356   */\n  gt\n    /* \"#utility.yul\":4370:4371   */\n  0x01\n    /* \"#utility.yul\":4365:4983   */\n  dup2\n  eq\n  tag_78\n  jumpi\n    /* \"#utility.yul\":5027:5028   */\n  0x00\n    /* \"#utility.yul\":5044:5050   */\n  dup5\n    /* \"#utility.yul\":5041:5118   */\n  iszero\n  tag_79\n  jumpi\n    /* \"#utility.yul\":5093:5102   */\n  dup3\n    /* \"#utility.yul\":5088:5091   */\n  dup8\n    /* \"#utility.yul\":5084:5103   */\n  add\n    /* \"#utility.yul\":5078:5104   */\n  mload\n    /* \"#utility.yul\":5069:5104   */\n  swap1\n  pop\n    /* \"#utility.yul\":5041:5118   */\ntag_79:\n    /* \"#utility.yul\":5144:5211   */\n  tag_80\n    /* \"#utility.yul\":5204:5210   */\n  dup6\n    /* \"#utility.yul\":5197:5202   */\n  dup3\n    /* \"#utility.yul\":5144:5211   */\n  tag_24\n  jump\t// in\ntag_80:\n    /* \"#utility.yul\":5138:5142   */\n  dup7\n    /* \"#utility.yul\":5131:5212   */\n  sstore\n    /* \"#utility.yul\":5000:5222   */\n  pop\n    /* \"#utility.yul\":4335:5222   */\n  jump(tag_77)\n    /* \"#utility.yul\":4365:4983   */\ntag_78:\n    /* \"#utility.yul\":4417:4421   */\n  0x1f\n    /* \"#utility.yul\":4413:4422   */\n  not\n    /* \"#utility.yul\":4405:4411   */\n  dup5\n    /* \"#utility.yul\":4401:4423   */\n  and\n    /* \"#utility.yul\":4451:4488   */\n  tag_81\n    /* \"#utility.yul\":4483:4487   */\n  dup7\n    /* \"#utility.yul\":4451:4488   */\n  tag_9\n  jump\t// in\ntag_81:\n    /* \"#utility.yul\":4510:4511   */\n  0x00\n    /* \"#utility.yul\":4524:4732   */\ntag_82:\n    /* \"#utility.yul\":4538:4545   */\n  dup3\n    /* \"#utility.yul\":4535:4536   */\n  dup2\n    /* \"#utility.yul\":4532:4546   */\n  lt\n    /* \"#utility.yul\":4524:4732   */\n  iszero\n  tag_84\n  jumpi\n    /* \"#utility.yul\":4617:4626   */\n  dup5\n    /* \"#utility.yul\":4612:4615   */\n  dup10\n    /* \"#utility.yul\":4608:4627   */\n  add\n    /* \"#utility.yul\":4602:4628   */\n  mload\n    /* \"#utility.yul\":4594:4600   */\n  dup3\n    /* \"#utility.yul\":4587:4629   */\n  sstore\n    /* \"#utility.yul\":4668:4669   */\n  0x01\n    /* \"#utility.yul\":4660:4666   */\n  dup3\n    /* \"#utility.yul\":4656:4670   */\n  add\n    /* \"#utility.yul\":4646:4670   */\n  swap2\n  pop\n    /* \"#utility.yul\":4715:4717   */\n  0x20\n    /* \"#utility.yul\":4704:4713   */\n  dup6\n    /* \"#utility.yul\":4700:4718   */\n  add\n    /* \"#utility.yul\":4687:4718   */\n  swap5\n  pop\n    /* \"#utility.yul\":4561:4565   */\n  0x20\n    /* \"#utility.yul\":4558:4559   */\n  dup2\n    /* \"#utility.yul\":4554:4566   */\n  add\n    /* \"#utility.yul\":4549:4566   */\n  swap1\n  pop\n    /* \"#utility.yul\":4524:4732   */\n  jump(tag_82)\ntag_84:\n    /* \"#utility.yul\":4760:4766   */\n  dup7\n    /* \"#utility.yul\":4751:4758   */\n  dup4\n    /* \"#utility.yul\":4748:4767   */\n  lt\n    /* \"#utility.yul\":4745:4924   */\n  iszero\n  tag_85\n  jumpi\n    /* \"#utility.yul\":4818:4827   */\n  dup5\n    /* \"#utility.yul\":4813:4816   */\n  dup10\n    /* \"#utility.yul\":4809:4828   */\n  add\n    /* \"#utility.yul\":4803:4829   */\n  mload\n    /* \"#utility.yul\":4861:4909   */\n  tag_86\n    /* \"#utility.yul\":4903:4907   */\n  0x1f\n    /* \"#utility.yul\":4895:4901   */\n  dup10\n    /* \"#utility.yul\":4891:4908   */\n  and\n    /* \"#utility.yul\":4880:4889   */\n  dup3\n    /* \"#utility.yul\":4861:4909   */\n  tag_23\n  jump\t// in\ntag_86:\n    /* \"#utility.yul\":4853:4859   */\n  dup4\n    /* \"#utility.yul\":4846:4910   */\n  sstore\n    /* \"#utility.yul\":4768:4924   */\n  pop\n    /* \"#utility.yul\":4745:4924   */\ntag_85:\n    /* \"#utility.yul\":4970:4971   */\n  0x01\n    /* \"#utility.yul\":4966:4967   */\n  0x02\n    /* \"#utility.yul\":4958:4964   */\n  dup9\n    /* \"#utility.yul\":4954:4968   */\n  mul\n    /* \"#utility.yul\":4950:4972   */\n  add\n    /* \"#utility.yul\":4944:4948   */\n  dup9\n    /* \"#utility.yul\":4937:4973   */\n  sstore\n    /* \"#utility.yul\":4372:4983   */\n  pop\n  pop\n  pop\n    /* \"#utility.yul\":4335:5222   */\ntag_77:\n  pop\n    /* \"#utility.yul\":3925:5228   */\n  pop\n  pop\n  pop\n    /* \"#utility.yul\":3833:5228   */\n  pop\n  pop\n  jump\t// out\n    /* \"test/test.sol\":58:771  contract Hello {... */\ntag_4:\n  dataSize(sub_0)\n  dup1\n  dataOffset(sub_0)\n  0x00\n  codecopy\n  0x00\n  return\nstop\n\nsub_0: assembly {\n        /* \"test/test.sol\":58:771  contract Hello {... */\n      mstore(0x40, 0x80)\n      callvalue\n      dup1\n      iszero\n      tag_1\n      jumpi\n      0x00\n      dup1\n      revert\n    tag_1:\n      pop\n      jumpi(tag_2, lt(calldatasize, 0x04))\n      shr(0xe0, calldataload(0x00))\n      dup1\n      0x8a42ebe9\n      eq\n      tag_3\n      jumpi\n      dup1\n      0xc3fad957\n      eq\n      tag_4\n      jumpi\n    tag_2:\n      0x00\n      dup1\n      revert\n        /* \"test/test.sol\":494:635  function set(string memory newh,uint256 _id) public {... */\n    tag_3:\n      tag_5\n      0x04\n      dup1\n      calldatasize\n      sub\n      dup2\n      add\n      swap1\n      tag_6\n      swap2\n      swap1\n      tag_7\n      jump\t// in\n    tag_6:\n      tag_8\n      jump\t// in\n    tag_5:\n      stop\n        /* \"test/test.sol\":226:488  function say(uint256 _id) public view returns (string memory) {... */\n    tag_4:\n      tag_9\n      0x04\n      dup1\n      calldatasize\n      sub\n      dup2\n      add\n      swap1\n      tag_10\n      swap2\n      swap1\n      tag_11\n      jump\t// in\n    tag_10:\n      tag_12\n      jump\t// in\n    tag_9:\n      mload(0x40)\n      tag_13\n      swap2\n      swap1\n      tag_14\n      jump\t// in\n    tag_13:\n      mload(0x40)\n      dup1\n      swap2\n      sub\n      swap1\n      return\n        /* \"test/test.sol\":494:635  function set(string memory newh,uint256 _id) public {... */\n    tag_8:\n        /* \"test/test.sol\":557:573  Info memory info */\n      0x00\n        /* \"test/test.sol\":575:600  Info(newh,_id,msg.sender) */\n      mload(0x40)\n      dup1\n      0x60\n      add\n      0x40\n      mstore\n      dup1\n        /* \"test/test.sol\":580:584  newh */\n      dup5\n        /* \"test/test.sol\":575:600  Info(newh,_id,msg.sender) */\n      dup2\n      mstore\n      0x20\n      add\n        /* \"test/test.sol\":585:588  _id */\n      dup4\n        /* \"test/test.sol\":575:600  Info(newh,_id,msg.sender) */\n      dup2\n      mstore\n      0x20\n      add\n        /* \"test/test.sol\":589:599  msg.sender */\n      caller\n        /* \"test/test.sol\":575:600  Info(newh,_id,msg.sender) */\n      0xffffffffffffffffffffffffffffffffffffffff\n      and\n      dup2\n      mstore\n      pop\n        /* \"test/test.sol\":557:600  Info memory info =Info(newh,_id,msg.sender) */\n      swap1\n      pop\n        /* \"test/test.sol\":611:616  infos */\n      0x01\n        /* \"test/test.sol\":622:626  info */\n      dup2\n        /* \"test/test.sol\":611:627  infos.push(info) */\n      swap1\n      dup1\n      0x01\n      dup2\n      sload\n      add\n      dup1\n      dup3\n      sstore\n      dup1\n      swap2\n      pop\n      pop\n      0x01\n      swap1\n      sub\n      swap1\n      0x00\n      mstore\n      keccak256(0x00, 0x20)\n      swap1\n      0x03\n      mul\n      add\n      0x00\n      swap1\n      swap2\n      swap1\n      swap2\n      swap1\n      swap2\n      pop\n      0x00\n      dup3\n      add\n      mload\n      dup2\n      0x00\n      add\n      swap1\n      dup2\n      tag_17\n      swap2\n      swap1\n      tag_18\n      jump\t// in\n    tag_17:\n      pop\n      0x20\n      dup3\n      add\n      mload\n      dup2\n      0x01\n      add\n      sstore\n      0x40\n      dup3\n      add\n      mload\n      dup2\n      0x02\n      add\n      exp(0x0100, 0x00)\n      dup2\n      sload\n      dup2\n      0xffffffffffffffffffffffffffffffffffffffff\n      mul\n      not\n      and\n      swap1\n      dup4\n      0xffffffffffffffffffffffffffffffffffffffff\n      and\n      mul\n      or\n      swap1\n      sstore\n      pop\n      pop\n      pop\n        /* \"test/test.sol\":546:635  {... */\n      pop\n        /* \"test/test.sol\":494:635  function set(string memory newh,uint256 _id) public {... */\n      pop\n      pop\n      jump\t// out\n        /* \"test/test.sol\":226:488  function say(uint256 _id) public view returns (string memory) {... */\n    tag_12:\n        /* \"test/test.sol\":273:286  string memory */\n      0x60\n        /* \"test/test.sol\":303:312  uint256 i */\n      0x00\n        /* \"test/test.sol\":299:448  for(uint256 i=0; i<infos.length; i++) {... */\n    tag_20:\n        /* \"test/test.sol\":318:323  infos */\n      0x01\n        /* \"test/test.sol\":318:330  infos.length */\n      dup1\n      sload\n      swap1\n      pop\n        /* \"test/test.sol\":316:317  i */\n      dup2\n        /* \"test/test.sol\":316:330  i<infos.length */\n      lt\n        /* \"test/test.sol\":299:448  for(uint256 i=0; i<infos.length; i++) {... */\n      iszero\n      tag_21\n      jumpi\n        /* \"test/test.sol\":369:372  _id */\n      dup3\n        /* \"test/test.sol\":355:360  infos */\n      0x01\n        /* \"test/test.sol\":361:362  i */\n      dup3\n        /* \"test/test.sol\":355:363  infos[i] */\n      dup2\n      sload\n      dup2\n      lt\n      tag_23\n      jumpi\n      tag_24\n      tag_25\n      jump\t// in\n    tag_24:\n    tag_23:\n      swap1\n      0x00\n      mstore\n      keccak256(0x00, 0x20)\n      swap1\n      0x03\n      mul\n      add\n        /* \"test/test.sol\":355:366  infos[i].id */\n      0x01\n      add\n      sload\n        /* \"test/test.sol\":355:372  infos[i].id ==_id */\n      sub\n        /* \"test/test.sol\":352:437  if(infos[i].id ==_id) {... */\n      tag_27\n      jumpi\n        /* \"test/test.sol\":400:421  addinfo(infos[i].phr) */\n      tag_28\n        /* \"test/test.sol\":408:413  infos */\n      0x01\n        /* \"test/test.sol\":414:415  i */\n      dup3\n        /* \"test/test.sol\":408:416  infos[i] */\n      dup2\n      sload\n      dup2\n      lt\n      tag_29\n      jumpi\n      tag_30\n      tag_25\n      jump\t// in\n    tag_30:\n    tag_29:\n      swap1\n      0x00\n      mstore\n      keccak256(0x00, 0x20)\n      swap1\n      0x03\n      mul\n      add\n        /* \"test/test.sol\":408:420  infos[i].phr */\n      0x00\n      add\n        /* \"test/test.sol\":400:421  addinfo(infos[i].phr) */\n      dup1\n      sload\n      tag_32\n      swap1\n      tag_33\n      jump\t// in\n    tag_32:\n      dup1\n      0x1f\n      add\n      0x20\n      dup1\n      swap2\n      div\n      mul\n      0x20\n      add\n      mload(0x40)\n      swap1\n      dup2\n      add\n      0x40\n      mstore\n      dup1\n      swap3\n      swap2\n      swap1\n      dup2\n      dup2\n      mstore\n      0x20\n      add\n      dup3\n      dup1\n      sload\n      tag_34\n      swap1\n      tag_33\n      jump\t// in\n    tag_34:\n      dup1\n      iszero\n      tag_35\n      jumpi\n      dup1\n      0x1f\n      lt\n      tag_36\n      jumpi\n      0x0100\n      dup1\n      dup4\n      sload\n      div\n      mul\n      dup4\n      mstore\n      swap2\n      0x20\n      add\n      swap2\n      jump(tag_35)\n    tag_36:\n      dup3\n      add\n      swap2\n      swap1\n      0x00\n      mstore\n      keccak256(0x00, 0x20)\n      swap1\n    tag_37:\n      dup2\n      sload\n      dup2\n      mstore\n      swap1\n      0x01\n      add\n      swap1\n      0x20\n      add\n      dup1\n      dup4\n      gt\n      tag_37\n      jumpi\n      dup3\n      swap1\n      sub\n      0x1f\n      and\n      dup3\n      add\n      swap2\n    tag_35:\n      pop\n      pop\n      pop\n      pop\n      pop\n        /* \"test/test.sol\":400:407  addinfo */\n      tag_38\n        /* \"test/test.sol\":400:421  addinfo(infos[i].phr) */\n      jump\t// in\n    tag_28:\n        /* \"test/test.sol\":392:421  return  addinfo(infos[i].phr) */\n      swap2\n      pop\n      pop\n      jump(tag_19)\n        /* \"test/test.sol\":352:437  if(infos[i].id ==_id) {... */\n    tag_27:\n        /* \"test/test.sol\":332:335  i++ */\n      dup1\n      dup1\n      0x01\n      add\n      swap2\n      pop\n      pop\n        /* \"test/test.sol\":299:448  for(uint256 i=0; i<infos.length; i++) {... */\n      jump(tag_20)\n    tag_21:\n      pop\n        /* \"test/test.sol\":465:480  addinfo(strvar) */\n      tag_39\n        /* \"test/test.sol\":473:479  strvar */\n      0x00\n        /* \"test/test.sol\":465:480  addinfo(strvar) */\n      dup1\n      sload\n      tag_40\n      swap1\n      tag_33\n      jump\t// in\n    tag_40:\n      dup1\n      0x1f\n      add\n      0x20\n      dup1\n      swap2\n      div\n      mul\n      0x20\n      add\n      mload(0x40)\n      swap1\n      dup2\n      add\n      0x40\n      mstore\n      dup1\n      swap3\n      swap2\n      swap1\n      dup2\n      dup2\n      mstore\n      0x20\n      add\n      dup3\n      dup1\n      sload\n      tag_41\n      swap1\n      tag_33\n      jump\t// in\n    tag_41:\n      dup1\n      iszero\n      tag_42\n      jumpi\n      dup1\n      0x1f\n      lt\n      tag_43\n      jumpi\n      0x0100\n      dup1\n      dup4\n      sload\n      div\n      mul\n      dup4\n      mstore\n      swap2\n      0x20\n      add\n      swap2\n      jump(tag_42)\n    tag_43:\n      dup3\n      add\n      swap2\n      swap1\n      0x00\n      mstore\n      keccak256(0x00, 0x20)\n      swap1\n    tag_44:\n      dup2\n      sload\n      dup2\n      mstore\n      swap1\n      0x01\n      add\n      swap1\n      0x20\n      add\n      dup1\n      dup4\n      gt\n      tag_44\n      jumpi\n      dup3\n      swap1\n      sub\n      0x1f\n      and\n      dup3\n      add\n      swap2\n    tag_42:\n      pop\n      pop\n      pop\n      pop\n      pop\n        /* \"test/test.sol\":465:472  addinfo */\n      tag_38\n        /* \"test/test.sol\":465:480  addinfo(strvar) */\n      jump\t// in\n    tag_39:\n        /* \"test/test.sol\":458:480  return addinfo(strvar) */\n      swap1\n      pop\n        /* \"test/test.sol\":226:488  function say(uint256 _id) public view returns (string memory) {... */\n    tag_19:\n      swap2\n      swap1\n      pop\n      jump\t// out\n        /* \"test/test.sol\":641:768  function addinfo(string memory hwd) internal pure returns(string memory) {... */\n    tag_38:\n        /* \"test/test.sol\":699:712  string memory */\n      0x60\n        /* \"test/test.sol\":743:746  hwd */\n      dup2\n        /* \"test/test.sol\":728:760  string .concat(hwd,\" from zion\") */\n      add(0x20, mload(0x40))\n      tag_46\n      swap2\n      swap1\n      tag_47\n      jump\t// in\n    tag_46:\n      mload(0x40)\n      0x20\n      dup2\n      dup4\n      sub\n      sub\n      dup2\n      mstore\n      swap1\n      0x40\n      mstore\n        /* \"test/test.sol\":721:760  return string .concat(hwd,\" from zion\") */\n      swap1\n      pop\n        /* \"test/test.sol\":641:768  function addinfo(string memory hwd) internal pure returns(string memory) {... */\n      swap2\n      swap1\n      pop\n      jump\t// out\n        /* \"#utility.yul\":7:82   */\n    tag_48:\n        /* \"#utility.yul\":40:46   */\n      0x00\n        /* \"#utility.yul\":73:75   */\n      0x40\n        /* \"#utility.yul\":67:76   */\n      mload\n        /* \"#utility.yul\":57:76   */\n      swap1\n      pop\n        /* \"#utility.yul\":7:82   */\n      swap1\n      jump\t// out\n        /* \"#utility.yul\":88:205   */\n    tag_49:\n        /* \"#utility.yul\":197:198   */\n      0x00\n        /* \"#utility.yul\":194:195   */\n      dup1\n        /* \"#utility.yul\":187:199   */\n      revert\n        /* \"#utility.yul\":211:328   */\n    tag_50:\n        /* \"#utility.yul\":320:321   */\n      0x00\n        /* \"#utility.yul\":317:318   */\n      dup1\n        /* \"#utility.yul\":310:322   */\n      revert\n        /* \"#utility.yul\":334:451   */\n    tag_51:\n        /* \"#utility.yul\":443:444   */\n      0x00\n        /* \"#utility.yul\":440:441   */\n      dup1\n        /* \"#utility.yul\":433:445   */\n      revert\n        /* \"#utility.yul\":457:574   */\n    tag_52:\n        /* \"#utility.yul\":566:567   */\n      0x00\n        /* \"#utility.yul\":563:564   */\n      dup1\n        /* \"#utility.yul\":556:568   */\n      revert\n        /* \"#utility.yul\":580:682   */\n    tag_53:\n        /* \"#utility.yul\":621:627   */\n      0x00\n        /* \"#utility.yul\":672:674   */\n      0x1f\n        /* \"#utility.yul\":668:675   */\n      not\n        /* \"#utility.yul\":663:665   */\n      0x1f\n        /* \"#utility.yul\":656:661   */\n      dup4\n        /* \"#utility.yul\":652:666   */\n      add\n        /* \"#utility.yul\":648:676   */\n      and\n        /* \"#utility.yul\":638:676   */\n      swap1\n      pop\n        /* \"#utility.yul\":580:682   */\n      swap2\n      swap1\n      pop\n      jump\t// out\n        /* \"#utility.yul\":688:868   */\n    tag_54:\n        /* \"#utility.yul\":736:813   */\n      0x4e487b7100000000000000000000000000000000000000000000000000000000\n        /* \"#utility.yul\":733:734   */\n      0x00\n        /* \"#utility.yul\":726:814   */\n      mstore\n        /* \"#utility.yul\":833:837   */\n      0x41\n        /* \"#utility.yul\":830:831   */\n      0x04\n        /* \"#utility.yul\":823:838   */\n      mstore\n        /* \"#utility.yul\":857:861   */\n      0x24\n        /* \"#utility.yul\":854:855   */\n      0x00\n        /* \"#utility.yul\":847:862   */\n      revert\n        /* \"#utility.yul\":874:1155   */\n    tag_55:\n        /* \"#utility.yul\":957:984   */\n      tag_96\n        /* \"#utility.yul\":979:983   */\n      dup3\n        /* \"#utility.yul\":957:984   */\n      tag_53\n      jump\t// in\n    tag_96:\n        /* \"#utility.yul\":949:955   */\n      dup2\n        /* \"#utility.yul\":945:985   */\n      add\n        /* \"#utility.yul\":1087:1093   */\n      dup2\n        /* \"#utility.yul\":1075:1085   */\n      dup2\n        /* \"#utility.yul\":1072:1094   */\n      lt\n        /* \"#utility.yul\":1051:1069   */\n      0xffffffffffffffff\n        /* \"#utility.yul\":1039:1049   */\n      dup3\n        /* \"#utility.yul\":1036:1070   */\n      gt\n        /* \"#utility.yul\":1033:1095   */\n      or\n        /* \"#utility.yul\":1030:1118   */\n      iszero\n      tag_97\n      jumpi\n        /* \"#utility.yul\":1098:1116   */\n      tag_98\n      tag_54\n      jump\t// in\n    tag_98:\n        /* \"#utility.yul\":1030:1118   */\n    tag_97:\n        /* \"#utility.yul\":1138:1148   */\n      dup1\n        /* \"#utility.yul\":1134:1136   */\n      0x40\n        /* \"#utility.yul\":1127:1149   */\n      mstore\n        /* \"#utility.yul\":917:1155   */\n      pop\n        /* \"#utility.yul\":874:1155   */\n      pop\n      pop\n      jump\t// out\n        /* \"#utility.yul\":1161:1290   */\n    tag_56:\n        /* \"#utility.yul\":1195:1201   */\n      0x00\n        /* \"#utility.yul\":1222:1242   */\n      tag_100\n      tag_48\n      jump\t// in\n    tag_100:\n        /* \"#utility.yul\":1212:1242   */\n      swap1\n      pop\n        /* \"#utility.yul\":1251:1284   */\n      tag_101\n        /* \"#utility.yul\":1279:1283   */\n      dup3\n        /* \"#utility.yul\":1271:1277   */\n      dup3\n        /* \"#utility.yul\":1251:1284   */\n      tag_55\n      jump\t// in\n    tag_101:\n        /* \"#utility.yul\":1161:1290   */\n      swap2\n      swap1\n      pop\n      jump\t// out\n        /* \"#utility.yul\":1296:1604   */\n    tag_57:\n        /* \"#utility.yul\":1358:1362   */\n      0x00\n        /* \"#utility.yul\":1448:1466   */\n      0xffffffffffffffff\n        /* \"#utility.yul\":1440:1446   */\n      dup3\n        /* \"#utility.yul\":1437:1467   */\n      gt\n        /* \"#utility.yul\":1434:1490   */\n      iszero\n      tag_103\n      jumpi\n        /* \"#utility.yul\":1470:1488   */\n      tag_104\n      tag_54\n      jump\t// in\n    tag_104:\n        /* \"#utility.yul\":1434:1490   */\n    tag_103:\n        /* \"#utility.yul\":1508:1537   */\n      tag_105\n        /* \"#utility.yul\":1530:1536   */\n      dup3\n        /* \"#utility.yul\":1508:1537   */\n      tag_53\n      jump\t// in\n    tag_105:\n        /* \"#utility.yul\":1500:1537   */\n      swap1\n      pop\n        /* \"#utility.yul\":1592:1596   */\n      0x20\n        /* \"#utility.yul\":1586:1590   */\n      dup2\n        /* \"#utility.yul\":1582:1597   */\n      add\n        /* \"#utility.yul\":1574:1597   */\n      swap1\n      pop\n        /* \"#utility.yul\":1296:1604   */\n      swap2\n      swap1\n      pop\n      jump\t// out\n        /* \"#utility.yul\":1610:1758   */\n    tag_58:\n        /* \"#utility.yul\":1708:1714   */\n      dup3\n        /* \"#utility.yul\":1703:1706   */\n      dup2\n        /* \"#utility.yul\":1698:1701   */\n      dup4\n        /* \"#utility.yul\":1685:1715   */\n      calldatacopy\n        /* \"#utility.yul\":1749:1750   */\n      0x00\n        /* \"#utility.yul\":1740:1746   */\n      dup4\n        /* \"#utility.yul\":1735:1738   */\n      dup4\n        /* \"#utility.yul\":1731:1747   */\n      add\n        /* \"#utility.yul\":1724:1751   */\n      mstore\n        /* \"#utility.yul\":1610:1758   */\n      pop\n      pop\n      pop\n      jump\t// out\n        /* \"#utility.yul\":1764:2189   */\n    tag_59:\n        /* \"#utility.yul\":1842:1847   */\n      0x00\n        /* \"#utility.yul\":1867:1933   */\n      tag_108\n        /* \"#utility.yul\":1883:1932   */\n      tag_109\n        /* \"#utility.yul\":1925:1931   */\n      dup5\n        /* \"#utility.yul\":1883:1932   */\n      tag_57\n      jump\t// in\n    tag_109:\n        /* \"#utility.yul\":1867:1933   */\n      tag_56\n      jump\t// in\n    tag_108:\n        /* \"#utility.yul\":1858:1933   */\n      swap1\n      pop\n        /* \"#utility.yul\":1956:1962   */\n      dup3\n        /* \"#utility.yul\":1949:1954   */\n      dup2\n        /* \"#utility.yul\":1942:1963   */\n      mstore\n        /* \"#utility.yul\":1994:1998   */\n      0x20\n        /* \"#utility.yul\":1987:1992   */\n      dup2\n        /* \"#utility.yul\":1983:1999   */\n      add\n        /* \"#utility.yul\":2032:2035   */\n      dup5\n        /* \"#utility.yul\":2023:2029   */\n      dup5\n        /* \"#utility.yul\":2018:2021   */\n      dup5\n        /* \"#utility.yul\":2014:2030   */\n      add\n        /* \"#utility.yul\":2011:2036   */\n      gt\n        /* \"#utility.yul\":2008:2120   */\n      iszero\n      tag_110\n      jumpi\n        /* \"#utility.yul\":2039:2118   */\n      tag_111\n      tag_52\n      jump\t// in\n    tag_111:\n        /* \"#utility.yul\":2008:2120   */\n    tag_110:\n        /* \"#utility.yul\":2129:2183   */\n      tag_112\n        /* \"#utility.yul\":2176:2182   */\n      dup5\n        /* \"#utility.yul\":2171:2174   */\n      dup3\n        /* \"#utility.yul\":2166:2169   */\n      dup6\n        /* \"#utility.yul\":2129:2183   */\n      tag_58\n      jump\t// in\n    tag_112:\n        /* \"#utility.yul\":1848:2189   */\n      pop\n        /* \"#utility.yul\":1764:2189   */\n      swap4\n      swap3\n      pop\n      pop\n      pop\n      jump\t// out\n        /* \"#utility.yul\":2209:2549   */\n    tag_60:\n        /* \"#utility.yul\":2265:2270   */\n      0x00\n        /* \"#utility.yul\":2314:2317   */\n      dup3\n        /* \"#utility.yul\":2307:2311   */\n      0x1f\n        /* \"#utility.yul\":2299:2305   */\n      dup4\n        /* \"#utility.yul\":2295:2312   */\n      add\n        /* \"#utility.yul\":2291:2318   */\n      slt\n        /* \"#utility.yul\":2281:2403   */\n      tag_114\n      jumpi\n        /* \"#utility.yul\":2322:2401   */\n      tag_115\n      tag_51\n      jump\t// in\n    tag_115:\n        /* \"#utility.yul\":2281:2403   */\n    tag_114:\n        /* \"#utility.yul\":2439:2445   */\n      dup2\n        /* \"#utility.yul\":2426:2446   */\n      calldataload\n        /* \"#utility.yul\":2464:2543   */\n      tag_116\n        /* \"#utility.yul\":2539:2542   */\n      dup5\n        /* \"#utility.yul\":2531:2537   */\n      dup3\n        /* \"#utility.yul\":2524:2528   */\n      0x20\n        /* \"#utility.yul\":2516:2522   */\n      dup7\n        /* \"#utility.yul\":2512:2529   */\n      add\n        /* \"#utility.yul\":2464:2543   */\n      tag_59\n      jump\t// in\n    tag_116:\n        /* \"#utility.yul\":2455:2543   */\n      swap2\n      pop\n        /* \"#utility.yul\":2271:2549   */\n      pop\n        /* \"#utility.yul\":2209:2549   */\n      swap3\n      swap2\n      pop\n      pop\n      jump\t// out\n        /* \"#utility.yul\":2555:2632   */\n    tag_61:\n        /* \"#utility.yul\":2592:2599   */\n      0x00\n        /* \"#utility.yul\":2621:2626   */\n      dup2\n        /* \"#utility.yul\":2610:2626   */\n      swap1\n      pop\n        /* \"#utility.yul\":2555:2632   */\n      swap2\n      swap1\n      pop\n      jump\t// out\n        /* \"#utility.yul\":2638:2760   */\n    tag_62:\n        /* \"#utility.yul\":2711:2735   */\n      tag_119\n        /* \"#utility.yul\":2729:2734   */\n      dup2\n        /* \"#utility.yul\":2711:2735   */\n      tag_61\n      jump\t// in\n    tag_119:\n        /* \"#utility.yul\":2704:2709   */\n      dup2\n        /* \"#utility.yul\":2701:2736   */\n      eq\n        /* \"#utility.yul\":2691:2754   */\n      tag_120\n      jumpi\n        /* \"#utility.yul\":2750:2751   */\n      0x00\n        /* \"#utility.yul\":2747:2748   */\n      dup1\n        /* \"#utility.yul\":2740:2752   */\n      revert\n        /* \"#utility.yul\":2691:2754   */\n    tag_120:\n        /* \"#utility.yul\":2638:2760   */\n      pop\n      jump\t// out\n        /* \"#utility.yul\":2766:2905   */\n    tag_63:\n        /* \"#utility.yul\":2812:2817   */\n      0x00\n        /* \"#utility.yul\":2850:2856   */\n      dup2\n        /* \"#utility.yul\":2837:2857   */\n      calldataload\n        /* \"#utility.yul\":2828:2857   */\n      swap1\n      pop\n        /* \"#utility.yul\":2866:2899   */\n      tag_122\n        /* \"#utility.yul\":2893:2898   */\n      dup2\n        /* \"#utility.yul\":2866:2899   */\n      tag_62\n      jump\t// in\n    tag_122:\n        /* \"#utility.yul\":2766:2905   */\n      swap3\n      swap2\n      pop\n      pop\n      jump\t// out\n        /* \"#utility.yul\":2911:3565   */\n    tag_7:\n        /* \"#utility.yul\":2989:2995   */\n      0x00\n        /* \"#utility.yul\":2997:3003   */\n      dup1\n        /* \"#utility.yul\":3046:3048   */\n      0x40\n        /* \"#utility.yul\":3034:3043   */\n      dup4\n        /* \"#utility.yul\":3025:3032   */\n      dup6\n        /* \"#utility.yul\":3021:3044   */\n      sub\n        /* \"#utility.yul\":3017:3049   */\n      slt\n        /* \"#utility.yul\":3014:3133   */\n      iszero\n      tag_124\n      jumpi\n        /* \"#utility.yul\":3052:3131   */\n      tag_125\n      tag_49\n      jump\t// in\n    tag_125:\n        /* \"#utility.yul\":3014:3133   */\n    tag_124:\n        /* \"#utility.yul\":3200:3201   */\n      0x00\n        /* \"#utility.yul\":3189:3198   */\n      dup4\n        /* \"#utility.yul\":3185:3202   */\n      add\n        /* \"#utility.yul\":3172:3203   */\n      calldataload\n        /* \"#utility.yul\":3230:3248   */\n      0xffffffffffffffff\n        /* \"#utility.yul\":3222:3228   */\n      dup2\n        /* \"#utility.yul\":3219:3249   */\n      gt\n        /* \"#utility.yul\":3216:3333   */\n      iszero\n      tag_126\n      jumpi\n        /* \"#utility.yul\":3252:3331   */\n      tag_127\n      tag_50\n      jump\t// in\n    tag_127:\n        /* \"#utility.yul\":3216:3333   */\n    tag_126:\n        /* \"#utility.yul\":3357:3420   */\n      tag_128\n        /* \"#utility.yul\":3412:3419   */\n      dup6\n        /* \"#utility.yul\":3403:3409   */\n      dup3\n        /* \"#utility.yul\":3392:3401   */\n      dup7\n        /* \"#utility.yul\":3388:3410   */\n      add\n        /* \"#utility.yul\":3357:3420   */\n      tag_60\n      jump\t// in\n    tag_128:\n        /* \"#utility.yul\":3347:3420   */\n      swap3\n      pop\n        /* \"#utility.yul\":3143:3430   */\n      pop\n        /* \"#utility.yul\":3469:3471   */\n      0x20\n        /* \"#utility.yul\":3495:3548   */\n      tag_129\n        /* \"#utility.yul\":3540:3547   */\n      dup6\n        /* \"#utility.yul\":3531:3537   */\n      dup3\n        /* \"#utility.yul\":3520:3529   */\n      dup7\n        /* \"#utility.yul\":3516:3538   */\n      add\n        /* \"#utility.yul\":3495:3548   */\n      tag_63\n      jump\t// in\n    tag_129:\n        /* \"#utility.yul\":3485:3548   */\n      swap2\n      pop\n        /* \"#utility.yul\":3440:3558   */\n      pop\n        /* \"#utility.yul\":2911:3565   */\n      swap3\n      pop\n      swap3\n      swap1\n      pop\n      jump\t// out\n        /* \"#utility.yul\":3571:3900   */\n    tag_11:\n        /* \"#utility.yul\":3630:3636   */\n      0x00\n        /* \"#utility.yul\":3679:3681   */\n      0x20\n        /* \"#utility.yul\":3667:3676   */\n      dup3\n        /* \"#utility.yul\":3658:3665   */\n      dup5\n        /* \"#utility.yul\":3654:3677   */\n      sub\n        /* \"#utility.yul\":3650:3682   */\n      slt\n        /* \"#utility.yul\":3647:3766   */\n      iszero\n      tag_131\n      jumpi\n        /* \"#utility.yul\":3685:3764   */\n      tag_132\n      tag_49\n      jump\t// in\n    tag_132:\n        /* \"#utility.yul\":3647:3766   */\n    tag_131:\n        /* \"#utility.yul\":3805:3806   */\n      0x00\n        /* \"#utility.yul\":3830:3883   */\n      tag_133\n        /* \"#utility.yul\":3875:3882   */\n      dup5\n        /* \"#utility.yul\":3866:3872   */\n      dup3\n        /* \"#utility.yul\":3855:3864   */\n      dup6\n        /* \"#utility.yul\":3851:3873   */\n      add\n        /* \"#utility.yul\":3830:3883   */\n      tag_63\n      jump\t// in\n    tag_133:\n        /* \"#utility.yul\":3820:3883   */\n      swap2\n      pop\n        /* \"#utility.yul\":3776:3893   */\n      pop\n        /* \"#utility.yul\":3571:3900   */\n      swap3\n      swap2\n      pop\n      pop\n      jump\t// out\n        /* \"#utility.yul\":3906:4005   */\n    tag_64:\n        /* \"#utility.yul\":3958:3964   */\n      0x00\n        /* \"#utility.yul\":3992:3997   */\n      dup2\n        /* \"#utility.yul\":3986:3998   */\n      mload\n        /* \"#utility.yul\":3976:3998   */\n      swap1\n      pop\n        /* \"#utility.yul\":3906:4005   */\n      swap2\n      swap1\n      pop\n      jump\t// out\n        /* \"#utility.yul\":4011:4180   */\n    tag_65:\n        /* \"#utility.yul\":4095:4106   */\n      0x00\n        /* \"#utility.yul\":4129:4135   */\n      dup3\n        /* \"#utility.yul\":4124:4127   */\n      dup3\n        /* \"#utility.yul\":4117:4136   */\n      mstore\n        /* \"#utility.yul\":4169:4173   */\n      0x20\n        /* \"#utility.yul\":4164:4167   */\n      dup3\n        /* \"#utility.yul\":4160:4174   */\n      add\n        /* \"#utility.yul\":4145:4174   */\n      swap1\n      pop\n        /* \"#utility.yul\":4011:4180   */\n      swap3\n      swap2\n      pop\n      pop\n      jump\t// out\n        /* \"#utility.yul\":4186:4325   */\n    tag_66:\n        /* \"#utility.yul\":4275:4281   */\n      dup3\n        /* \"#utility.yul\":4270:4273   */\n      dup2\n        /* \"#utility.yul\":4265:4268   */\n      dup4\n        /* \"#utility.yul\":4259:4282   */\n      mcopy\n        /* \"#utility.yul\":4316:4317   */\n      0x00\n        /* \"#utility.yul\":4307:4313   */\n      dup4\n        /* \"#utility.yul\":4302:4305   */\n      dup4\n        /* \"#utility.yul\":4298:4314   */\n      add\n        /* \"#utility.yul\":4291:4318   */\n      mstore\n        /* \"#utility.yul\":4186:4325   */\n      pop\n      pop\n      pop\n      jump\t// out\n        /* \"#utility.yul\":4331:4708   */\n    tag_67:\n        /* \"#utility.yul\":4419:4422   */\n      0x00\n        /* \"#utility.yul\":4447:4486   */\n      tag_138\n        /* \"#utility.yul\":4480:4485   */\n      dup3\n        /* \"#utility.yul\":4447:4486   */\n      tag_64\n      jump\t// in\n    tag_138:\n        /* \"#utility.yul\":4502:4573   */\n      tag_139\n        /* \"#utility.yul\":4566:4572   */\n      dup2\n        /* \"#utility.yul\":4561:4564   */\n      dup6\n        /* \"#utility.yul\":4502:4573   */\n      tag_65\n      jump\t// in\n    tag_139:\n        /* \"#utility.yul\":4495:4573   */\n      swap4\n      pop\n        /* \"#utility.yul\":4582:4647   */\n      tag_140\n        /* \"#utility.yul\":4640:4646   */\n      dup2\n        /* \"#utility.yul\":4635:4638   */\n      dup6\n        /* \"#utility.yul\":4628:4632   */\n      0x20\n        /* \"#utility.yul\":4621:4626   */\n      dup7\n        /* \"#utility.yul\":4617:4633   */\n      add\n        /* \"#utility.yul\":4582:4647   */\n      tag_66\n      jump\t// in\n    tag_140:\n        /* \"#utility.yul\":4672:4701   */\n      tag_141\n        /* \"#utility.yul\":4694:4700   */\n      dup2\n        /* \"#utility.yul\":4672:4701   */\n      tag_53\n      jump\t// in\n    tag_141:\n        /* \"#utility.yul\":4667:4670   */\n      dup5\n        /* \"#utility.yul\":4663:4702   */\n      add\n        /* \"#utility.yul\":4656:4702   */\n      swap2\n      pop\n        /* \"#utility.yul\":4423:4708   */\n      pop\n        /* \"#utility.yul\":4331:4708   */\n      swap3\n      swap2\n      pop\n      pop\n      jump\t// out\n        /* \"#utility.yul\":4714:5027   */\n    tag_14:\n        /* \"#utility.yul\":4827:4831   */\n      0x00\n        /* \"#utility.yul\":4865:4867   */\n      0x20\n        /* \"#utility.yul\":4854:4863   */\n      dup3\n        /* \"#utility.yul\":4850:4868   */\n      add\n        /* \"#utility.yul\":4842:4868   */\n      swap1\n      pop\n        /* \"#utility.yul\":4914:4923   */\n      dup2\n        /* \"#utility.yul\":4908:4912   */\n      dup2\n        /* \"#utility.yul\":4904:4924   */\n      sub\n        /* \"#utility.yul\":4900:4901   */\n      0x00\n        /* \"#utility.yul\":4889:4898   */\n      dup4\n        /* \"#utility.yul\":4885:4902   */\n      add\n        /* \"#utility.yul\":4878:4925   */\n      mstore\n        /* \"#utility.yul\":4942:5020   */\n      tag_143\n        /* \"#utility.yul\":5015:5019   */\n      dup2\n        /* \"#utility.yul\":5006:5012   */\n      dup5\n        /* \"#utility.yul\":4942:5020   */\n      tag_67\n      jump\t// in\n    tag_143:\n        /* \"#utility.yul\":4934:5020   */\n      swap1\n      pop\n        /* \"#utility.yul\":4714:5027   */\n      swap3\n      swap2\n      pop\n      pop\n      jump\t// out\n        /* \"#utility.yul\":5033:5213   */\n    tag_68:\n        /* \"#utility.yul\":5081:5158   */\n      0x4e487b7100000000000000000000000000000000000000000000000000000000\n        /* \"#utility.yul\":5078:5079   */\n      0x00\n        /* \"#utility.yul\":5071:5159   */\n      mstore\n        /* \"#utility.yul\":5178:5182   */\n      0x22\n        /* \"#utility.yul\":5175:5176   */\n      0x04\n        /* \"#utility.yul\":5168:5183   */\n      mstore\n        /* \"#utility.yul\":5202:5206   */\n      0x24\n        /* \"#utility.yul\":5199:5200   */\n      0x00\n        /* \"#utility.yul\":5192:5207   */\n      revert\n        /* \"#utility.yul\":5219:5539   */\n    tag_33:\n        /* \"#utility.yul\":5263:5269   */\n      0x00\n        /* \"#utility.yul\":5300:5301   */\n      0x02\n        /* \"#utility.yul\":5294:5298   */\n      dup3\n        /* \"#utility.yul\":5290:5302   */\n      div\n        /* \"#utility.yul\":5280:5302   */\n      swap1\n      pop\n        /* \"#utility.yul\":5347:5348   */\n      0x01\n        /* \"#utility.yul\":5341:5345   */\n      dup3\n        /* \"#utility.yul\":5337:5349   */\n      and\n        /* \"#utility.yul\":5368:5386   */\n      dup1\n        /* \"#utility.yul\":5358:5439   */\n      tag_146\n      jumpi\n        /* \"#utility.yul\":5424:5428   */\n      0x7f\n        /* \"#utility.yul\":5416:5422   */\n      dup3\n        /* \"#utility.yul\":5412:5429   */\n      and\n        /* \"#utility.yul\":5402:5429   */\n      swap2\n      pop\n        /* \"#utility.yul\":5358:5439   */\n    tag_146:\n        /* \"#utility.yul\":5486:5488   */\n      0x20\n        /* \"#utility.yul\":5478:5484   */\n      dup3\n        /* \"#utility.yul\":5475:5489   */\n      lt\n        /* \"#utility.yul\":5455:5473   */\n      dup2\n        /* \"#utility.yul\":5452:5490   */\n      sub\n        /* \"#utility.yul\":5449:5533   */\n      tag_147\n      jumpi\n        /* \"#utility.yul\":5505:5523   */\n      tag_148\n      tag_68\n      jump\t// in\n    tag_148:\n        /* \"#utility.yul\":5449:5533   */\n    tag_147:\n        /* \"#utility.yul\":5270:5539   */\n      pop\n        /* \"#utility.yul\":5219:5539   */\n      swap2\n      swap1\n      pop\n      jump\t// out\n        /* \"#utility.yul\":5545:5686   */\n    tag_69:\n        /* \"#utility.yul\":5594:5598   */\n      0x00\n        /* \"#utility.yul\":5617:5620   */\n      dup2\n        /* \"#utility.yul\":5609:5620   */\n      swap1\n      pop\n        /* \"#utility.yul\":5640:5643   */\n      dup2\n        /* \"#utility.yul\":5637:5638   */\n      0x00\n        /* \"#utility.yul\":5630:5644   */\n      mstore\n        /* \"#utility.yul\":5674:5678   */\n      0x20\n        /* \"#utility.yul\":5671:5672   */\n      0x00\n        /* \"#utility.yul\":5661:5679   */\n      keccak256\n        /* \"#utility.yul\":5653:5679   */\n      swap1\n      pop\n        /* \"#utility.yul\":5545:5686   */\n      swap2\n      swap1\n      pop\n      jump\t// out\n        /* \"#utility.yul\":5692:5785   */\n    tag_70:\n        /* \"#utility.yul\":5729:5735   */\n      0x00\n        /* \"#utility.yul\":5776:5778   */\n      0x20\n        /* \"#utility.yul\":5771:5773   */\n      0x1f\n        /* \"#utility.yul\":5764:5769   */\n      dup4\n        /* \"#utility.yul\":5760:5774   */\n      add\n        /* \"#utility.yul\":5756:5779   */\n      div\n        /* \"#utility.yul\":5746:5779   */\n      swap1\n      pop\n        /* \"#utility.yul\":5692:5785   */\n      swap2\n      swap1\n      pop\n      jump\t// out\n        /* \"#utility.yul\":5791:5898   */\n    tag_71:\n        /* \"#utility.yul\":5835:5843   */\n      0x00\n        /* \"#utility.yul\":5885:5890   */\n      dup3\n        /* \"#utility.yul\":5879:5883   */\n      dup3\n        /* \"#utility.yul\":5875:5891   */\n      shl\n        /* \"#utility.yul\":5854:5891   */\n      swap1\n      pop\n        /* \"#utility.yul\":5791:5898   */\n      swap3\n      swap2\n      pop\n      pop\n      jump\t// out\n        /* \"#utility.yul\":5904:6297   */\n    tag_72:\n        /* \"#utility.yul\":5973:5979   */\n      0x00\n        /* \"#utility.yul\":6023:6024   */\n      0x08\n        /* \"#utility.yul\":6011:6021   */\n      dup4\n        /* \"#utility.yul\":6007:6025   */\n      mul\n        /* \"#utility.yul\":6046:6143   */\n      tag_153\n        /* \"#utility.yul\":6076:6142   */\n      0xffffffffffffffffffffffffffffffffffffffffffffffffffffffffffffffff\n        /* \"#utility.yul\":6065:6074   */\n      dup3\n        /* \"#utility.yul\":6046:6143   */\n      tag_71\n      jump\t// in\n    tag_153:\n        /* \"#utility.yul\":6164:6203   */\n      tag_154\n        /* \"#utility.yul\":6194:6202   */\n      dup7\n        /* \"#utility.yul\":6183:6192   */\n      dup4\n        /* \"#utility.yul\":6164:6203   */\n      tag_71\n      jump\t// in\n    tag_154:\n        /* \"#utility.yul\":6152:6203   */\n      swap6\n      pop\n        /* \"#utility.yul\":6236:6240   */\n      dup1\n        /* \"#utility.yul\":6232:6241   */\n      not\n        /* \"#utility.yul\":6225:6230   */\n      dup5\n        /* \"#utility.yul\":6221:6242   */\n      and\n        /* \"#utility.yul\":6212:6242   */\n      swap4\n      pop\n        /* \"#utility.yul\":6285:6289   */\n      dup1\n        /* \"#utility.yul\":6275:6283   */\n      dup7\n        /* \"#utility.yul\":6271:6290   */\n      and\n        /* \"#utility.yul\":6264:6269   */\n      dup5\n        /* \"#utility.yul\":6261:6291   */\n      or\n        /* \"#utility.yul\":6251:6291   */\n      swap3\n      pop\n        /* \"#utility.yul\":5980:6297   */\n      pop\n      pop\n        /* \"#utility.yul\":5904:6297   */\n      swap4\n      swap3\n      pop\n      pop\n      pop\n      jump\t// out\n        /* \"#utility.yul\":6303:6363   */\n    tag_73:\n        /* \"#utility.yul\":6331:6334   */\n      0x00\n        /* \"#utility.yul\":6352:6357   */\n      dup2\n        /* \"#utility.yul\":6345:6357   */\n      swap1\n      pop\n        /* \"#utility.yul\":6303:6363   */\n      swap2\n      swap1\n      pop\n      jump\t// out\n        /* \"#utility.yul\":6369:6511   */\n    tag_74:\n        /* \"#utility.yul\":6419:6428   */\n      0x00\n        /* \"#utility.yul\":6452:6505   */\n      tag_157\n        /* \"#utility.yul\":6470:6504   */\n      tag_158\n        /* \"#utility.yul\":6479:6503   */\n      tag_159\n        /* \"#utility.yul\":6497:6502   */\n      dup5\n        /* \"#utility.yul\":6479:6503   */\n      tag_61\n      jump\t// in\n    tag_159:\n        /* \"#utility.yul\":6470:6504   */\n      tag_73\n      jump\t// in\n    tag_158:\n        /* \"#utility.yul\":6452:6505   */\n      tag_61\n      jump\t// in\n    tag_157:\n        /* \"#utility.yul\":6439:6505   */\n      swap1\n      pop\n        /* \"#utility.yul\":6369:6511   */\n      swap2\n      swap1\n      pop\n      jump\t// out\n        /* \"#utility.yul\":6517:6592   */\n    tag_75:\n        /* \"#utility.yul\":6560:6563   */\n      0x00\n        /* \"#utility.yul\":6581:6586   */\n      dup2\n        /* \"#utility.yul\":6574:6586   */\n      swap1\n      pop\n        /* \"#utility.yul\":6517:6592   */\n      swap2\n      swap1\n      pop\n      jump\t// out\n        /* \"#utility.yul\":6598:6867   */\n    tag_76:\n        /* \"#utility.yul\":6708:6747   */\n      tag_162\n        /* \"#utility.yul\":6739:6746   */\n      dup4\n        /* \"#utility.yul\":6708:6747   */\n      tag_74\n      jump\t// in\n    tag_162:\n        /* \"#utility.yul\":6769:6860   */\n      tag_163\n        /* \"#utility.yul\":6818:6859   */\n      tag_164\n        /* \"#utility.yul\":6842:6858   */\n      dup3\n        /* \"#utility.yul\":6818:6859   */\n      tag_75\n      jump\t// in\n    tag_164:\n        /* \"#utility.yul\":6810:6816   */\n      dup5\n        /* \"#utility.yul\":6803:6807   */\n      dup5\n        /* \"#utility.yul\":6797:6808   */\n      sload\n        /* \"#utility.yul\":6769:6860   */\n      tag_72\n      jump\t// in\n    tag_163:\n        /* \"#utility.yul\":6763:6767   */\n      dup3\n        /* \"#utility.yul\":6756:6861   */\n      sstore\n        /* \"#utility.yul\":6674:6867   */\n      pop\n        /* \"#utility.yul\":6598:6867   */\n      pop\n      pop\n      pop\n      jump\t// out\n        /* \"#utility.yul\":6873:6946   */\n    tag_77:\n        /* \"#utility.yul\":6918:6921   */\n      0x00\n        /* \"#utility.yul\":6873:6946   */\n      swap1\n      jump\t// out\n        /* \"#utility.yul\":6952:7141   */\n    tag_78:\n        /* \"#utility.yul\":7029:7061   */\n      tag_167\n      tag_77\n      jump\t// in\n    tag_167:\n        /* \"#utility.yul\":7070:7135   */\n      tag_168\n        /* \"#utility.yul\":7128:7134   */\n      dup2\n        /* \"#utility.yul\":7120:7126   */\n      dup5\n        /* \"#utility.yul\":7114:7118   */\n      dup5\n        /* \"#utility.yul\":7070:7135   */\n      tag_76\n      jump\t// in\n    tag_168:\n        /* \"#utility.yul\":7005:7141   */\n      pop\n        /* \"#utility.yul\":6952:7141   */\n      pop\n      pop\n      jump\t// out\n        /* \"#utility.yul\":7147:7333   */\n    tag_79:\n        /* \"#utility.yul\":7207:7327   */\n    tag_170:\n        /* \"#utility.yul\":7224:7227   */\n      dup2\n        /* \"#utility.yul\":7217:7222   */\n      dup2\n        /* \"#utility.yul\":7214:7228   */\n      lt\n        /* \"#utility.yul\":7207:7327   */\n      iszero\n      tag_172\n      jumpi\n        /* \"#utility.yul\":7278:7317   */\n      tag_173\n        /* \"#utility.yul\":7315:7316   */\n      0x00\n        /* \"#utility.yul\":7308:7313   */\n      dup3\n        /* \"#utility.yul\":7278:7317   */\n      tag_78\n      jump\t// in\n    tag_173:\n        /* \"#utility.yul\":7251:7252   */\n      0x01\n        /* \"#utility.yul\":7244:7249   */\n      dup2\n        /* \"#utility.yul\":7240:7253   */\n      add\n        /* \"#utility.yul\":7231:7253   */\n      swap1\n      pop\n        /* \"#utility.yul\":7207:7327   */\n      jump(tag_170)\n    tag_172:\n        /* \"#utility.yul\":7147:7333   */\n      pop\n      pop\n      jump\t// out\n        /* \"#utility.yul\":7339:7882   */\n    tag_80:\n        /* \"#utility.yul\":7440:7442   */\n      0x1f\n        /* \"#utility.yul\":7435:7438   */\n      dup3\n        /* \"#utility.yul\":7432:7443   */\n      gt\n        /* \"#utility.yul\":7429:7875   */\n      iszero\n      tag_175\n      jumpi\n        /* \"#utility.yul\":7474:7512   */\n      tag_176\n        /* \"#utility.yul\":7506:7511   */\n      dup2\n        /* \"#utility.yul\":7474:7512   */\n      tag_69\n      jump\t// in\n    tag_176:\n        /* \"#utility.yul\":7558:7587   */\n      tag_177\n        /* \"#utility.yul\":7576:7586   */\n      dup5\n        /* \"#utility.yul\":7558:7587   */\n      tag_70\n      jump\t// in\n    tag_177:\n        /* \"#utility.yul\":7548:7556   */\n      dup2\n        /* \"#utility.yul\":7544:7588   */\n      add\n        /* \"#utility.yul\":7741:7743   */\n      0x20\n        /* \"#utility.yul\":7729:7739   */\n      dup6\n        /* \"#utility.yul\":7726:7744   */\n      lt\n        /* \"#utility.yul\":7723:7772   */\n      iszero\n      tag_178\n      jumpi\n        /* \"#utility.yul\":7762:7770   */\n      dup2\n        /* \"#utility.yul\":7747:7770   */\n      swap1\n      pop\n        /* \"#utility.yul\":7723:7772   */\n    tag_178:\n        /* \"#utility.yul\":7785:7865   */\n      tag_179\n        /* \"#utility.yul\":7841:7863   */\n      tag_180\n        /* \"#utility.yul\":7859:7862   */\n      dup6\n        /* \"#utility.yul\":7841:7863   */\n      tag_70\n      jump\t// in\n    tag_180:\n        /* \"#utility.yul\":7831:7839   */\n      dup4\n        /* \"#utility.yul\":7827:7864   */\n      add\n        /* \"#utility.yul\":7814:7825   */\n      dup3\n        /* \"#utility.yul\":7785:7865   */\n      tag_79\n      jump\t// in\n    tag_179:\n        /* \"#utility.yul\":7444:7875   */\n      pop\n      pop\n        /* \"#utility.yul\":7429:7875   */\n    tag_175:\n        /* \"#utility.yul\":7339:7882   */\n      pop\n      pop\n      pop\n      jump\t// out\n        /* \"#utility.yul\":7888:8005   */\n    tag_81:\n        /* \"#utility.yul\":7942:7950   */\n      0x00\n        /* \"#utility.yul\":7992:7997   */\n      dup3\n        /* \"#utility.yul\":7986:7990   */\n      dup3\n        /* \"#utility.yul\":7982:7998   */\n      shr\n        /* \"#utility.yul\":7961:7998   */\n      swap1\n      pop\n        /* \"#utility.yul\":7888:8005   */\n      swap3\n      swap2\n      pop\n      pop\n      jump\t// out\n        /* \"#utility.yul\":8011:8180   */\n    tag_82:\n        /* \"#utility.yul\":8055:8061   */\n      0x00\n        /* \"#utility.yul\":8088:8139   */\n      tag_183\n        /* \"#utility.yul\":8136:8137   */\n      0x00\n        /* \"#utility.yul\":8132:8138   */\n      not\n        /* \"#utility.yul\":8124:8129   */\n      dup5\n        /* \"#utility.yul\":8121:8122   */\n      0x08\n        /* \"#utility.yul\":8117:8130   */\n      mul\n        /* \"#utility.yul\":8088:8139   */\n      tag_81\n      jump\t// in\n    tag_183:\n        /* \"#utility.yul\":8084:8140   */\n      not\n        /* \"#utility.yul\":8169:8173   */\n      dup1\n        /* \"#utility.yul\":8163:8167   */\n      dup4\n        /* \"#utility.yul\":8159:8174   */\n      and\n        /* \"#utility.yul\":8149:8174   */\n      swap2\n      pop\n        /* \"#utility.yul\":8062:8180   */\n      pop\n        /* \"#utility.yul\":8011:8180   */\n      swap3\n      swap2\n      pop\n      pop\n      jump\t// out\n        /* \"#utility.yul\":8185:8480   */\n    tag_83:\n        /* \"#utility.yul\":8261:8265   */\n      0x00\n        /* \"#utility.yul\":8407:8436   */\n      tag_185\n        /* \"#utility.yul\":8432:8435   */\n      dup4\n        /* \"#utility.yul\":8426:8430   */\n      dup4\n        /* \"#utility.yul\":8407:8436   */\n      tag_82\n      jump\t// in\n    tag_185:\n        /* \"#utility.yul\":8399:8436   */\n      swap2\n      pop\n        /* \"#utility.yul\":8469:8472   */\n      dup3\n        /* \"#utility.yul\":8466:8467   */\n      0x02\n        /* \"#utility.yul\":8462:8473   */\n      mul\n        /* \"#utility.yul\":8456:8460   */\n      dup3\n        /* \"#utility.yul\":8453:8474   */\n      or\n        /* \"#utility.yul\":8445:8474   */\n      swap1\n      pop\n        /* \"#utility.yul\":8185:8480   */\n      swap3\n      swap2\n      pop\n      pop\n      jump\t// out\n        /* \"#utility.yul\":8485:9880   */\n    tag_18:\n        /* \"#utility.yul\":8602:8639   */\n      tag_187\n        /* \"#utility.yul\":8635:8638   */\n      dup3\n        /* \"#utility.yul\":8602:8639   */\n      tag_64\n      jump\t// in\n    tag_187:\n        /* \"#utility.yul\":8704:8722   */\n      0xffffffffffffffff\n        /* \"#utility.yul\":8696:8702   */\n      dup2\n        /* \"#utility.yul\":8693:8723   */\n      gt\n        /* \"#utility.yul\":8690:8746   */\n      iszero\n      tag_188\n      jumpi\n        /* \"#utility.yul\":8726:8744   */\n      tag_189\n      tag_54\n      jump\t// in\n    tag_189:\n        /* \"#utility.yul\":8690:8746   */\n    tag_188:\n        /* \"#utility.yul\":8770:8808   */\n      tag_190\n        /* \"#utility.yul\":8802:8806   */\n      dup3\n        /* \"#utility.yul\":8796:8807   */\n      sload\n        /* \"#utility.yul\":8770:8808   */\n      tag_33\n      jump\t// in\n    tag_190:\n        /* \"#utility.yul\":8855:8922   */\n      tag_191\n        /* \"#utility.yul\":8915:8921   */\n      dup3\n        /* \"#utility.yul\":8907:8913   */\n      dup3\n        /* \"#utility.yul\":8901:8905   */\n      dup6\n        /* \"#utility.yul\":8855:8922   */\n      tag_80\n      jump\t// in\n    tag_191:\n        /* \"#utility.yul\":8949:8950   */\n      0x00\n        /* \"#utility.yul\":8973:8977   */\n      0x20\n        /* \"#utility.yul\":8960:8977   */\n      swap1\n      pop\n        /* \"#utility.yul\":9005:9007   */\n      0x1f\n        /* \"#utility.yul\":8997:9003   */\n      dup4\n        /* \"#utility.yul\":8994:9008   */\n      gt\n        /* \"#utility.yul\":9022:9023   */\n      0x01\n        /* \"#utility.yul\":9017:9635   */\n      dup2\n      eq\n      tag_193\n      jumpi\n        /* \"#utility.yul\":9679:9680   */\n      0x00\n        /* \"#utility.yul\":9696:9702   */\n      dup5\n        /* \"#utility.yul\":9693:9770   */\n      iszero\n      tag_194\n      jumpi\n        /* \"#utility.yul\":9745:9754   */\n      dup3\n        /* \"#utility.yul\":9740:9743   */\n      dup8\n        /* \"#utility.yul\":9736:9755   */\n      add\n        /* \"#utility.yul\":9730:9756   */\n      mload\n        /* \"#utility.yul\":9721:9756   */\n      swap1\n      pop\n        /* \"#utility.yul\":9693:9770   */\n    tag_194:\n        /* \"#utility.yul\":9796:9863   */\n      tag_195\n        /* \"#utility.yul\":9856:9862   */\n      dup6\n        /* \"#utility.yul\":9849:9854   */\n      dup3\n        /* \"#utility.yul\":9796:9863   */\n      tag_83\n      jump\t// in\n    tag_195:\n        /* \"#utility.yul\":9790:9794   */\n      dup7\n        /* \"#utility.yul\":9783:9864   */\n      sstore\n        /* \"#utility.yul\":9652:9874   */\n      pop\n        /* \"#utility.yul\":8987:9874   */\n      jump(tag_192)\n        /* \"#utility.yul\":9017:9635   */\n    tag_193:\n        /* \"#utility.yul\":9069:9073   */\n      0x1f\n        /* \"#utility.yul\":9065:9074   */\n      not\n        /* \"#utility.yul\":9057:9063   */\n      dup5\n        /* \"#utility.yul\":9053:9075   */\n      and\n        /* \"#utility.yul\":9103:9140   */\n      tag_196\n        /* \"#utility.yul\":9135:9139   */\n      dup7\n        /* \"#utility.yul\":9103:9140   */\n      tag_69\n      jump\t// in\n    tag_196:\n        /* \"#utility.yul\":9162:9163   */\n      0x00\n        /* \"#utility.yul\":9176:9384   */\n    tag_197:\n        /* \"#utility.yul\":9190:9197   */\n      dup3\n        /* \"#utility.yul\":9187:9188   */\n      dup2\n        /* \"#utility.yul\":9184:9198   */\n      lt\n        /* \"#utility.yul\":9176:9384   */\n      iszero\n      tag_199\n      jumpi\n        /* \"#utility.yul\":9269:9278   */\n      dup5\n        /* \"#utility.yul\":9264:9267   */\n      dup10\n        /* \"#utility.yul\":9260:9279   */\n      add\n        /* \"#utility.yul\":9254:9280   */\n      mload\n        /* \"#utility.yul\":9246:9252   */\n      dup3\n        /* \"#utility.yul\":9239:9281   */\n      sstore\n        /* \"#utility.yul\":9320:9321   */\n      0x01\n        /* \"#utility.yul\":9312:9318   */\n      dup3\n        /* \"#utility.yul\":9308:9322   */\n      add\n        /* \"#utility.yul\":9298:9322   */\n      swap2\n      pop\n        /* \"#utility.yul\":9367:9369   */\n      0x20\n        /* \"#utility.yul\":9356:9365   */\n      dup6\n        /* \"#utility.yul\":9352:9370   */\n      add\n        /* \"#utility.yul\":9339:9370   */\n      swap5\n      pop\n        /* \"#utility.yul\":9213:9217   */\n      0x20\n        /* \"#utility.yul\":9210:9211   */\n      dup2\n        /* \"#utility.yul\":9206:9218   */\n      add\n        /* \"#utility.yul\":9201:9218   */\n      swap1\n      pop\n        /* \"#utility.yul\":9176:9384   */\n      jump(tag_197)\n    tag_199:\n        /* \"#utility.yul\":9412:9418   */\n      dup7\n        /* \"#utility.yul\":9403:9410   */\n      dup4\n        /* \"#utility.yul\":9400:9419   */\n      lt\n        /* \"#utility.yul\":9397:9576   */\n      iszero\n      tag_200\n      jumpi\n        /* \"#utility.yul\":9470:9479   */\n      dup5\n        /* \"#utility.yul\":9465:9468   */\n      dup10\n        /* \"#utility.yul\":9461:9480   */\n      add\n        /* \"#utility.yul\":9455:9481   */\n      mload\n        /* \"#utility.yul\":9513:9561   */\n      tag_201\n        /* \"#utility.yul\":9555:9559   */\n      0x1f\n        /* \"#utility.yul\":9547:9553   */\n      dup10\n        /* \"#utility.yul\":9543:9560   */\n      and\n        /* \"#utility.yul\":9532:9541   */\n      dup3\n        /* \"#utility.yul\":9513:9561   */\n      tag_82\n      jump\t// in\n    tag_201:\n        /* \"#utility.yul\":9505:9511   */\n      dup4\n        /* \"#utility.yul\":9498:9562   */\n      sstore\n        /* \"#utility.yul\":9420:9576   */\n      pop\n        /* \"#utility.yul\":9397:9576   */\n    tag_200:\n        /* \"#utility.yul\":9622:9623   */\n      0x01\n        /* \"#utility.yul\":9618:9619   */\n      0x02\n        /* \"#utility.yul\":9610:9616   */\n      dup9\n        /* \"#utility.yul\":9606:9620   */\n      mul\n        /* \"#utility.yul\":9602:9624   */\n      add\n        /* \"#utility.yul\":9596:9600   */\n      dup9\n        /* \"#utility.yul\":9589:9625   */\n      sstore\n        /* \"#utility.yul\":9024:9635   */\n      pop\n      pop\n      pop\n        /* \"#utility.yul\":8987:9874   */\n    tag_192:\n      pop\n        /* \"#utility.yul\":8577:9880   */\n      pop\n      pop\n      pop\n        /* \"#utility.yul\":8485:9880   */\n      pop\n      pop\n      jump\t// out\n        /* \"#utility.yul\":9886:10066   */\n    tag_25:\n        /* \"#utility.yul\":9934:10011   */\n      0x4e487b7100000000000000000000000000000000000000000000000000000000\n        /* \"#utility.yul\":9931:9932   */\n      0x00\n        /* \"#utility.yul\":9924:10012   */\n      mstore\n        /* \"#utility.yul\":10031:10035   */\n      0x32\n        /* \"#utility.yul\":10028:10029   */\n      0x04\n        /* \"#utility.yul\":10021:10036   */\n      mstore\n        /* \"#utility.yul\":10055:10059   */\n      0x24\n        /* \"#utility.yul\":10052:10053   */\n      0x00\n        /* \"#utility.yul\":10045:10060   */\n      revert\n        /* \"#utility.yul\":10072:10220   */\n    tag_84:\n        /* \"#utility.yul\":10174:10185   */\n      0x00\n        /* \"#utility.yul\":10211:10214   */\n      dup2\n        /* \"#utility.yul\":10196:10214   */\n      swap1\n      pop\n        /* \"#utility.yul\":10072:10220   */\n      swap3\n      swap2\n      pop\n      pop\n      jump\t// out\n        /* \"#utility.yul\":10226:10616   */\n    tag_85:\n        /* \"#utility.yul\":10332:10335   */\n      0x00\n        /* \"#utility.yul\":10360:10399   */\n      tag_205\n        /* \"#utility.yul\":10393:10398   */\n      dup3\n        /* \"#utility.yul\":10360:10399   */\n      tag_64\n      jump\t// in\n    tag_205:\n        /* \"#utility.yul\":10415:10504   */\n      tag_206\n        /* \"#utility.yul\":10497:10503   */\n      dup2\n        /* \"#utility.yul\":10492:10495   */\n      dup6\n        /* \"#utility.yul\":10415:10504   */\n      tag_84\n      jump\t// in\n    tag_206:\n        /* \"#utility.yul\":10408:10504   */\n      swap4\n      pop\n        /* \"#utility.yul\":10513:10578   */\n      tag_207\n        /* \"#utility.yul\":10571:10577   */\n      dup2\n        /* \"#utility.yul\":10566:10569   */\n      dup6\n        /* \"#utility.yul\":10559:10563   */\n      0x20\n        /* \"#utility.yul\":10552:10557   */\n      dup7\n        /* \"#utility.yul\":10548:10564   */\n      add\n        /* \"#utility.yul\":10513:10578   */\n      tag_66\n      jump\t// in\n    tag_207:\n        /* \"#utility.yul\":10603:10609   */\n      dup1\n        /* \"#utility.yul\":10598:10601   */\n      dup5\n        /* \"#utility.yul\":10594:10610   */\n      add\n        /* \"#utility.yul\":10587:10610   */\n      swap2\n      pop\n        /* \"#utility.yul\":10336:10616   */\n      pop\n        /* \"#utility.yul\":10226:10616   */\n      swap3\n      swap2\n      pop\n      pop\n      jump\t// out\n        /* \"#utility.yul\":10622:10810   */\n    tag_86:\n        /* \"#utility.yul\":10791:10803   */\n      0x2066726f6d207a696f6e00000000000000000000000000000000000000000000\n        /* \"#utility.yul\":10786:10789   */\n      dup2\n        /* \"#utility.yul\":10779:10804   */\n      mstore\n        /* \"#utility.yul\":10622:10810   */\n      pop\n      jump\t// out\n        /* \"#utility.yul\":10816:11358   */\n    tag_47:\n        /* \"#utility.yul\":11039:11042   */\n      0x00\n        /* \"#utility.yul\":11061:11156   */\n      tag_210\n        /* \"#utility.yul\":11152:11155   */\n      dup3\n        /* \"#utility.yul\":11143:11149   */\n      dup5\n        /* \"#utility.yul\":11061:11156   */\n      tag_85\n      jump\t// in\n    tag_210:\n        /* \"#utility.yul\":11054:11156   */\n      swap2\n      pop\n        /* \"#utility.yul\":11166:11304   */\n      tag_211\n        /* \"#utility.yul\":11300:11303   */\n      dup3\n        /* \"#utility.yul\":11166:11304   */\n      tag_86\n      jump\t// in\n    tag_211:\n        /* \"#utility.yul\":11329:11331   */\n      0x0a\n        /* \"#utility.yul\":11324:11327   */\n      dup3\n        /* \"#utility.yul\":11320:11332   */\n      add\n        /* \"#utility.yul\":11313:11332   */\n      swap2\n      pop\n        /* \"#utility.yul\":11349:11352   */\n      dup2\n        /* \"#utility.yul\":11342:11352   */\n      swap1\n      pop\n        /* \"#utility.yul\":10816:11358   */\n      swap3\n      swap2\n      pop\n      pop\n      jump\t// out\n\n    auxdata: 0xa2646970667358221220015088f479598e5161b0fa550e9fabe0caa6682eb6081cddc7702605d8309f2164736f6c634300081a0033\n}\n",
				"bytecode": {
					"linkReferences": {},
					"object": "60806040526040518060400160405280600b81526020017f68656c6c6f20776f726c640000000000000000000000000000000000000000008152505f90816100479190610293565b50348015610053575f80fd5b50610362565b5f81519050919050565b7f4e487b71000000000000000000000000000000000000000000000000000000005f52604160045260245ffd5b7f4e487b71000000000000000000000000000000000000000000000000000000005f52602260045260245ffd5b5f60028204905060018216806100d457607f821691505b6020821081036100e7576100e6610090565b5b50919050565b5f819050815f5260205f209050919050565b5f6020601f8301049050919050565b5f82821b905092915050565b5f600883026101497fffffffffffffffffffffffffffffffffffffffffffffffffffffffffffffffff8261010e565b610153868361010e565b95508019841693508086168417925050509392505050565b5f819050919050565b5f819050919050565b5f61019761019261018d8461016b565b610174565b61016b565b9050919050565b5f819050919050565b6101b08361017d565b6101c46101bc8261019e565b84845461011a565b825550505050565b5f90565b6101d86101cc565b6101e38184846101a7565b505050565b5b81811015610206576101fb5f826101d0565b6001810190506101e9565b5050565b601f82111561024b5761021c816100ed565b610225846100ff565b81016020851015610234578190505b610248610240856100ff565b8301826101e8565b50505b505050565b5f82821c905092915050565b5f61026b5f1984600802610250565b1980831691505092915050565b5f610283838361025c565b9150826002028217905092915050565b61029c82610059565b67ffffffffffffffff8111156102b5576102b4610063565b5b6102bf82546100bd565b6102ca82828561020a565b5f60209050601f8311600181146102fb575f84156102e9578287015190505b6102f38582610278565b86555061035a565b601f198416610309866100ed565b5f5b828110156103305784890151825560018201915060208501945060208101905061030b565b8683101561034d5784890151610349601f89168261025c565b8355505b6001600288020188555050505b505050505050565b6109458061036f5f395ff3fe608060405234801561000f575f80fd5b5060043610610034575f3560e01c80638a42ebe914610038578063c3fad95714610054575b5f80fd5b610052600480360381019061004d919061048f565b610084565b005b61006e600480360381019061006991906104e9565b61014c565b60405161007b9190610574565b60405180910390f35b5f60405180606001604052808481526020018381526020013373ffffffffffffffffffffffffffffffffffffffff168152509050600181908060018154018082558091505060019003905f5260205f2090600302015f909190919091505f820151815f0190816100f4919061078e565b50602082015181600101556040820151816002015f6101000a81548173ffffffffffffffffffffffffffffffffffffffff021916908373ffffffffffffffffffffffffffffffffffffffff1602179055505050505050565b60605f5b60018054905081101561024d5782600182815481106101725761017161085d565b5b905f5260205f2090600302016001015403610240576102386001828154811061019e5761019d61085d565b5b905f5260205f2090600302015f0180546101b7906105c1565b80601f01602080910402602001604051908101604052809291908181526020018280546101e3906105c1565b801561022e5780601f106102055761010080835404028352916020019161022e565b820191905f5260205f20905b81548152906001019060200180831161021157829003601f168201915b50505050506102e6565b9150506102e1565b8080600101915050610150565b506102de5f805461025d906105c1565b80601f0160208091040260200160405190810160405280929190818152602001828054610289906105c1565b80156102d45780601f106102ab576101008083540402835291602001916102d4565b820191905f5260205f20905b8154815290600101906020018083116102b757829003601f168201915b50505050506102e6565b90505b919050565b6060816040516020016102f991906108ea565b6040516020818303038152906040529050919050565b5f604051905090565b5f80fd5b5f80fd5b5f80fd5b5f80fd5b5f601f19601f8301169050919050565b7f4e487b71000000000000000000000000000000000000000000000000000000005f52604160045260245ffd5b61036e82610328565b810181811067ffffffffffffffff8211171561038d5761038c610338565b5b80604052505050565b5f61039f61030f565b90506103ab8282610365565b919050565b5f67ffffffffffffffff8211156103ca576103c9610338565b5b6103d382610328565b9050602081019050919050565b828183375f83830152505050565b5f6104006103fb846103b0565b610396565b90508281526020810184848401111561041c5761041b610324565b5b6104278482856103e0565b509392505050565b5f82601f83011261044357610442610320565b5b81356104538482602086016103ee565b91505092915050565b5f819050919050565b61046e8161045c565b8114610478575f80fd5b50565b5f8135905061048981610465565b92915050565b5f80604083850312156104a5576104a4610318565b5b5f83013567ffffffffffffffff8111156104c2576104c161031c565b5b6104ce8582860161042f565b92505060206104df8582860161047b565b9150509250929050565b5f602082840312156104fe576104fd610318565b5b5f61050b8482850161047b565b91505092915050565b5f81519050919050565b5f82825260208201905092915050565b8281835e5f83830152505050565b5f61054682610514565b610550818561051e565b935061056081856020860161052e565b61056981610328565b840191505092915050565b5f6020820190508181035f83015261058c818461053c565b905092915050565b7f4e487b71000000000000000000000000000000000000000000000000000000005f52602260045260245ffd5b5f60028204905060018216806105d857607f821691505b6020821081036105eb576105ea610594565b5b50919050565b5f819050815f5260205f209050919050565b5f6020601f8301049050919050565b5f82821b905092915050565b5f6008830261064d7fffffffffffffffffffffffffffffffffffffffffffffffffffffffffffffffff82610612565b6106578683610612565b95508019841693508086168417925050509392505050565b5f819050919050565b5f61069261068d6106888461045c565b61066f565b61045c565b9050919050565b5f819050919050565b6106ab83610678565b6106bf6106b782610699565b84845461061e565b825550505050565b5f90565b6106d36106c7565b6106de8184846106a2565b505050565b5b81811015610701576106f65f826106cb565b6001810190506106e4565b5050565b601f82111561074657610717816105f1565b61072084610603565b8101602085101561072f578190505b61074361073b85610603565b8301826106e3565b50505b505050565b5f82821c905092915050565b5f6107665f198460080261074b565b1980831691505092915050565b5f61077e8383610757565b9150826002028217905092915050565b61079782610514565b67ffffffffffffffff8111156107b0576107af610338565b5b6107ba82546105c1565b6107c5828285610705565b5f60209050601f8311600181146107f6575f84156107e4578287015190505b6107ee8582610773565b865550610855565b601f198416610804866105f1565b5f5b8281101561082b57848901518255600182019150602085019450602081019050610806565b868310156108485784890151610844601f891682610757565b8355505b6001600288020188555050505b505050505050565b7f4e487b71000000000000000000000000000000000000000000000000000000005f52603260045260245ffd5b5f81905092915050565b5f61089e82610514565b6108a8818561088a565b93506108b881856020860161052e565b80840191505092915050565b7f2066726f6d207a696f6e00000000000000000000000000000000000000000000815250565b5f6108f58284610894565b9150610900826108c4565b600a820191508190509291505056fea2646970667358221220015088f479598e5161b0fa550e9fabe0caa6682eb6081cddc7702605d8309f2164736f6c634300081a0033",
					"opcodes": "PUSH1 0x80 PUSH1 0x40 MSTORE PUSH1 0x40 MLOAD DUP1 PUSH1 0x40 ADD PUSH1 0x40 MSTORE DUP1 PUSH1 0xB DUP2 MSTORE PUSH1 0x20 ADD PUSH32 0x68656C6C6F20776F726C64000000000000000000000000000000000000000000 DUP2 MSTORE POP PUSH0 SWAP1 DUP2 PUSH2 0x47 SWAP2 SWAP1 PUSH2 0x293 JUMP JUMPDEST POP CALLVALUE DUP1 ISZERO PUSH2 0x53 JUMPI PUSH0 DUP1 REVERT JUMPDEST POP PUSH2 0x362 JUMP JUMPDEST PUSH0 DUP2 MLOAD SWAP1 POP SWAP2 SWAP1 POP JUMP JUMPDEST PUSH32 0x4E487B7100000000000000000000000000000000000000000000000000000000 PUSH0 MSTORE PUSH1 0x41 PUSH1 0x4 MSTORE PUSH1 0x24 PUSH0 REVERT JUMPDEST PUSH32 0x4E487B7100000000000000000000000000000000000000000000000000000000 PUSH0 MSTORE PUSH1 0x22 PUSH1 0x4 MSTORE PUSH1 0x24 PUSH0 REVERT JUMPDEST PUSH0 PUSH1 0x2 DUP3 DIV SWAP1 POP PUSH1 0x1 DUP3 AND DUP1 PUSH2 0xD4 JUMPI PUSH1 0x7F DUP3 AND SWAP2 POP JUMPDEST PUSH1 0x20 DUP3 LT DUP2 SUB PUSH2 0xE7 JUMPI PUSH2 0xE6 PUSH2 0x90 JUMP JUMPDEST JUMPDEST POP SWAP2 SWAP1 POP JUMP JUMPDEST PUSH0 DUP2 SWAP1 POP DUP2 PUSH0 MSTORE PUSH1 0x20 PUSH0 KECCAK256 SWAP1 POP SWAP2 SWAP1 POP JUMP JUMPDEST PUSH0 PUSH1 0x20 PUSH1 0x1F DUP4 ADD DIV SWAP1 POP SWAP2 SWAP1 POP JUMP JUMPDEST PUSH0 DUP3 DUP3 SHL SWAP1 POP SWAP3 SWAP2 POP POP JUMP JUMPDEST PUSH0 PUSH1 0x8 DUP4 MUL PUSH2 0x149 PUSH32 0xFFFFFFFFFFFFFFFFFFFFFFFFFFFFFFFFFFFFFFFFFFFFFFFFFFFFFFFFFFFFFFFF DUP3 PUSH2 0x10E JUMP JUMPDEST PUSH2 0x153 DUP7 DUP4 PUSH2 0x10E JUMP JUMPDEST SWAP6 POP DUP1 NOT DUP5 AND SWAP4 POP DUP1 DUP7 AND DUP5 OR SWAP3 POP POP POP SWAP4 SWAP3 POP POP POP JUMP JUMPDEST PUSH0 DUP2 SWAP1 POP SWAP2 SWAP1 POP JUMP JUMPDEST PUSH0 DUP2 SWAP1 POP SWAP2 SWAP1 POP JUMP JUMPDEST PUSH0 PUSH2 0x197 PUSH2 0x192 PUSH2 0x18D DUP5 PUSH2 0x16B JUMP JUMPDEST PUSH2 0x174 JUMP JUMPDEST PUSH2 0x16B JUMP JUMPDEST SWAP1 POP SWAP2 SWAP1 POP JUMP JUMPDEST PUSH0 DUP2 SWAP1 POP SWAP2 SWAP1 POP JUMP JUMPDEST PUSH2 0x1B0 DUP4 PUSH2 0x17D JUMP JUMPDEST PUSH2 0x1C4 PUSH2 0x1BC DUP3 PUSH2 0x19E JUMP JUMPDEST DUP5 DUP5 SLOAD PUSH2 0x11A JUMP JUMPDEST DUP3 SSTORE POP POP POP POP JUMP JUMPDEST PUSH0 SWAP1 JUMP JUMPDEST PUSH2 0x1D8 PUSH2 0x1CC JUMP JUMPDEST PUSH2 0x1E3 DUP2 DUP5 DUP5 PUSH2 0x1A7 JUMP JUMPDEST POP POP POP JUMP JUMPDEST JUMPDEST DUP2 DUP2 LT ISZERO PUSH2 0x206 JUMPI PUSH2 0x1FB PUSH0 DUP3 PUSH2 0x1D0 JUMP JUMPDEST PUSH1 0x1 DUP2 ADD SWAP1 POP PUSH2 0x1E9 JUMP JUMPDEST POP POP JUMP JUMPDEST PUSH1 0x1F DUP3 GT ISZERO PUSH2 0x24B JUMPI PUSH2 0x21C DUP2 PUSH2 0xED JUMP JUMPDEST PUSH2 0x225 DUP5 PUSH2 0xFF JUMP JUMPDEST DUP2 ADD PUSH1 0x20 DUP6 LT ISZERO PUSH2 0x234 JUMPI DUP2 SWAP1 POP JUMPDEST PUSH2 0x248 PUSH2 0x240 DUP6 PUSH2 0xFF JUMP JUMPDEST DUP4 ADD DUP3 PUSH2 0x1E8 JUMP JUMPDEST POP POP JUMPDEST POP POP POP JUMP JUMPDEST PUSH0 DUP3 DUP3 SHR SWAP1 POP SWAP3 SWAP2 POP POP JUMP JUMPDEST PUSH0 PUSH2 0x26B PUSH0 NOT DUP5 PUSH1 0x8 MUL PUSH2 0x250 JUMP JUMPDEST NOT DUP1 DUP4 AND SWAP2 POP POP SWAP3 SWAP2 POP POP JUMP JUMPDEST PUSH0 PUSH2 0x283 DUP4 DUP4 PUSH2 0x25C JUMP JUMPDEST SWAP2 POP DUP3 PUSH1 0x2 MUL DUP3 OR SWAP1 POP SWAP3 SWAP2 POP POP JUMP JUMPDEST PUSH2 0x29C DUP3 PUSH2 0x59 JUMP JUMPDEST PUSH8 0xFFFFFFFFFFFFFFFF DUP2 GT ISZERO PUSH2 0x2B5 JUMPI PUSH2 0x2B4 PUSH2 0x63 JUMP JUMPDEST JUMPDEST PUSH2 0x2BF DUP3 SLOAD PUSH2 0xBD JUMP JUMPDEST PUSH2 0x2CA DUP3 DUP3 DUP6 PUSH2 0x20A JUMP JUMPDEST PUSH0 PUSH1 0x20 SWAP1 POP PUSH1 0x1F DUP4 GT PUSH1 0x1 DUP2 EQ PUSH2 0x2FB JUMPI PUSH0 DUP5 ISZERO PUSH2 0x2E9 JUMPI DUP3 DUP8 ADD MLOAD SWAP1 POP JUMPDEST PUSH2 0x2F3 DUP6 DUP3 PUSH2 0x278 JUMP JUMPDEST DUP7 SSTORE POP PUSH2 0x35A JUMP JUMPDEST PUSH1 0x1F NOT DUP5 AND PUSH2 0x309 DUP7 PUSH2 0xED JUMP JUMPDEST PUSH0 JUMPDEST DUP3 DUP2 LT ISZERO PUSH2 0x330 JUMPI DUP5 DUP10 ADD MLOAD DUP3 SSTORE PUSH1 0x1 DUP3 ADD SWAP2 POP PUSH1 0x20 DUP6 ADD SWAP5 POP PUSH1 0x20 DUP2 ADD SWAP1 POP PUSH2 0x30B JUMP JUMPDEST DUP7 DUP4 LT ISZERO PUSH2 0x34D JUMPI DUP5 DUP10 ADD MLOAD PUSH2 0x349 PUSH1 0x1F DUP10 AND DUP3 PUSH2 0x25C JUMP JUMPDEST DUP4 SSTORE POP JUMPDEST PUSH1 0x1 PUSH1 0x2 DUP9 MUL ADD DUP9 SSTORE POP POP POP JUMPDEST POP POP POP POP POP POP JUMP JUMPDEST PUSH2 0x945 DUP1 PUSH2 0x36F PUSH0 CODECOPY PUSH0 RETURN INVALID PUSH1 0x80 PUSH1 0x40 MSTORE CALLVALUE DUP1 ISZERO PUSH2 0xF JUMPI PUSH0 DUP1 REVERT JUMPDEST POP PUSH1 0x4 CALLDATASIZE LT PUSH2 0x34 JUMPI PUSH0 CALLDATALOAD PUSH1 0xE0 SHR DUP1 PUSH4 0x8A42EBE9 EQ PUSH2 0x38 JUMPI DUP1 PUSH4 0xC3FAD957 EQ PUSH2 0x54 JUMPI JUMPDEST PUSH0 DUP1 REVERT JUMPDEST PUSH2 0x52 PUSH1 0x4 DUP1 CALLDATASIZE SUB DUP2 ADD SWAP1 PUSH2 0x4D SWAP2 SWAP1 PUSH2 0x48F JUMP JUMPDEST PUSH2 0x84 JUMP JUMPDEST STOP JUMPDEST PUSH2 0x6E PUSH1 0x4 DUP1 CALLDATASIZE SUB DUP2 ADD SWAP1 PUSH2 0x69 SWAP2 SWAP1 PUSH2 0x4E9 JUMP JUMPDEST PUSH2 0x14C JUMP JUMPDEST PUSH1 0x40 MLOAD PUSH2 0x7B SWAP2 SWAP1 PUSH2 0x574 JUMP JUMPDEST PUSH1 0x40 MLOAD DUP1 SWAP2 SUB SWAP1 RETURN JUMPDEST PUSH0 PUSH1 0x40 MLOAD DUP1 PUSH1 0x60 ADD PUSH1 0x40 MSTORE DUP1 DUP5 DUP2 MSTORE PUSH1 0x20 ADD DUP4 DUP2 MSTORE PUSH1 0x20 ADD CALLER PUSH20 0xFFFFFFFFFFFFFFFFFFFFFFFFFFFFFFFFFFFFFFFF AND DUP2 MSTORE POP SWAP1 POP PUSH1 0x1 DUP2 SWAP1 DUP1 PUSH1 0x1 DUP2 SLOAD ADD DUP1 DUP3 SSTORE DUP1 SWAP2 POP POP PUSH1 0x1 SWAP1 SUB SWAP1 PUSH0 MSTORE PUSH1 0x20 PUSH0 KECCAK256 SWAP1 PUSH1 0x3 MUL ADD PUSH0 SWAP1 SWAP2 SWAP1 SWAP2 SWAP1 SWAP2 POP PUSH0 DUP3 ADD MLOAD DUP2 PUSH0 ADD SWAP1 DUP2 PUSH2 0xF4 SWAP2 SWAP1 PUSH2 0x78E JUMP JUMPDEST POP PUSH1 0x20 DUP3 ADD MLOAD DUP2 PUSH1 0x1 ADD SSTORE PUSH1 0x40 DUP3 ADD MLOAD DUP2 PUSH1 0x2 ADD PUSH0 PUSH2 0x100 EXP DUP2 SLOAD DUP2 PUSH20 0xFFFFFFFFFFFFFFFFFFFFFFFFFFFFFFFFFFFFFFFF MUL NOT AND SWAP1 DUP4 PUSH20 0xFFFFFFFFFFFFFFFFFFFFFFFFFFFFFFFFFFFFFFFF AND MUL OR SWAP1 SSTORE POP POP POP POP POP POP JUMP JUMPDEST PUSH1 0x60 PUSH0 JUMPDEST PUSH1 0x1 DUP1 SLOAD SWAP1 POP DUP2 LT ISZERO PUSH2 0x24D JUMPI DUP3 PUSH1 0x1 DUP3 DUP2 SLOAD DUP2 LT PUSH2 0x172 JUMPI PUSH2 0x171 PUSH2 0x85D JUMP JUMPDEST JUMPDEST SWAP1 PUSH0 MSTORE PUSH1 0x20 PUSH0 KECCAK256 SWAP1 PUSH1 0x3 MUL ADD PUSH1 0x1 ADD SLOAD SUB PUSH2 0x240 JUMPI PUSH2 0x238 PUSH1 0x1 DUP3 DUP2 SLOAD DUP2 LT PUSH2 0x19E JUMPI PUSH2 0x19D PUSH2 0x85D JUMP JUMPDEST JUMPDEST SWAP1 PUSH0 MSTORE PUSH1 0x20 PUSH0 KECCAK256 SWAP1 PUSH1 0x3 MUL ADD PUSH0 ADD DUP1 SLOAD PUSH2 0x1B7 SWAP1 PUSH2 0x5C1 JUMP JUMPDEST DUP1 PUSH1 0x1F ADD PUSH1 0x20 DUP1 SWAP2 DIV MUL PUSH1 0x20 ADD PUSH1 0x40 MLOAD SWAP1 DUP2 ADD PUSH1 0x40 MSTORE DUP1 SWAP3 SWAP2 SWAP1 DUP2 DUP2 MSTORE PUSH1 0x20 ADD DUP3 DUP1 SLOAD PUSH2 0x1E3 SWAP1 PUSH2 0x5C1 JUMP JUMPDEST DUP1 ISZERO PUSH2 0x22E JUMPI DUP1 PUSH1 0x1F LT PUSH2 0x205 JUMPI PUSH2 0x100 DUP1 DUP4 SLOAD DIV MUL DUP4 MSTORE SWAP2 PUSH1 0x20 ADD SWAP2 PUSH2 0x22E JUMP JUMPDEST DUP3 ADD SWAP2 SWAP1 PUSH0 MSTORE PUSH1 0x20 PUSH0 KECCAK256 SWAP1 JUMPDEST DUP2 SLOAD DUP2 MSTORE SWAP1 PUSH1 0x1 ADD SWAP1 PUSH1 0x20 ADD DUP1 DUP4 GT PUSH2 0x211 JUMPI DUP3 SWAP1 SUB PUSH1 0x1F AND DUP3 ADD SWAP2 JUMPDEST POP POP POP POP POP PUSH2 0x2E6 JUMP JUMPDEST SWAP2 POP POP PUSH2 0x2E1 JUMP JUMPDEST DUP1 DUP1 PUSH1 0x1 ADD SWAP2 POP POP PUSH2 0x150 JUMP JUMPDEST POP PUSH2 0x2DE PUSH0 DUP1 SLOAD PUSH2 0x25D SWAP1 PUSH2 0x5C1 JUMP JUMPDEST DUP1 PUSH1 0x1F ADD PUSH1 0x20 DUP1 SWAP2 DIV MUL PUSH1 0x20 ADD PUSH1 0x40 MLOAD SWAP1 DUP2 ADD PUSH1 0x40 MSTORE DUP1 SWAP3 SWAP2 SWAP1 DUP2 DUP2 MSTORE PUSH1 0x20 ADD DUP3 DUP1 SLOAD PUSH2 0x289 SWAP1 PUSH2 0x5C1 JUMP JUMPDEST DUP1 ISZERO PUSH2 0x2D4 JUMPI DUP1 PUSH1 0x1F LT PUSH2 0x2AB JUMPI PUSH2 0x100 DUP1 DUP4 SLOAD DIV MUL DUP4 MSTORE SWAP2 PUSH1 0x20 ADD SWAP2 PUSH2 0x2D4 JUMP JUMPDEST DUP3 ADD SWAP2 SWAP1 PUSH0 MSTORE PUSH1 0x20 PUSH0 KECCAK256 SWAP1 JUMPDEST DUP2 SLOAD DUP2 MSTORE SWAP1 PUSH1 0x1 ADD SWAP1 PUSH1 0x20 ADD DUP1 DUP4 GT PUSH2 0x2B7 JUMPI DUP3 SWAP1 SUB PUSH1 0x1F AND DUP3 ADD SWAP2 JUMPDEST POP POP POP POP POP PUSH2 0x2E6 JUMP JUMPDEST SWAP1 POP JUMPDEST SWAP2 SWAP1 POP JUMP JUMPDEST PUSH1 0x60 DUP2 PUSH1 0x40 MLOAD PUSH1 0x20 ADD PUSH2 0x2F9 SWAP2 SWAP1 PUSH2 0x8EA JUMP JUMPDEST PUSH1 0x40 MLOAD PUSH1 0x20 DUP2 DUP4 SUB SUB DUP2 MSTORE SWAP1 PUSH1 0x40 MSTORE SWAP1 POP SWAP2 SWAP1 POP JUMP JUMPDEST PUSH0 PUSH1 0x40 MLOAD SWAP1 POP SWAP1 JUMP JUMPDEST PUSH0 DUP1 REVERT JUMPDEST PUSH0 DUP1 REVERT JUMPDEST PUSH0 DUP1 REVERT JUMPDEST PUSH0 DUP1 REVERT JUMPDEST PUSH0 PUSH1 0x1F NOT PUSH1 0x1F DUP4 ADD AND SWAP1 POP SWAP2 SWAP1 POP JUMP JUMPDEST PUSH32 0x4E487B7100000000000000000000000000000000000000000000000000000000 PUSH0 MSTORE PUSH1 0x41 PUSH1 0x4 MSTORE PUSH1 0x24 PUSH0 REVERT JUMPDEST PUSH2 0x36E DUP3 PUSH2 0x328 JUMP JUMPDEST DUP2 ADD DUP2 DUP2 LT PUSH8 0xFFFFFFFFFFFFFFFF DUP3 GT OR ISZERO PUSH2 0x38D JUMPI PUSH2 0x38C PUSH2 0x338 JUMP JUMPDEST JUMPDEST DUP1 PUSH1 0x40 MSTORE POP POP POP JUMP JUMPDEST PUSH0 PUSH2 0x39F PUSH2 0x30F JUMP JUMPDEST SWAP1 POP PUSH2 0x3AB DUP3 DUP3 PUSH2 0x365 JUMP JUMPDEST SWAP2 SWAP1 POP JUMP JUMPDEST PUSH0 PUSH8 0xFFFFFFFFFFFFFFFF DUP3 GT ISZERO PUSH2 0x3CA JUMPI PUSH2 0x3C9 PUSH2 0x338 JUMP JUMPDEST JUMPDEST PUSH2 0x3D3 DUP3 PUSH2 0x328 JUMP JUMPDEST SWAP1 POP PUSH1 0x20 DUP2 ADD SWAP1 POP SWAP2 SWAP1 POP JUMP JUMPDEST DUP3 DUP2 DUP4 CALLDATACOPY PUSH0 DUP4 DUP4 ADD MSTORE POP POP POP JUMP JUMPDEST PUSH0 PUSH2 0x400 PUSH2 0x3FB DUP5 PUSH2 0x3B0 JUMP JUMPDEST PUSH2 0x396 JUMP JUMPDEST SWAP1 POP DUP3 DUP2 MSTORE PUSH1 0x20 DUP2 ADD DUP5 DUP5 DUP5 ADD GT ISZERO PUSH2 0x41C JUMPI PUSH2 0x41B PUSH2 0x324 JUMP JUMPDEST JUMPDEST PUSH2 0x427 DUP5 DUP3 DUP6 PUSH2 0x3E0 JUMP JUMPDEST POP SWAP4 SWAP3 POP POP POP JUMP JUMPDEST PUSH0 DUP3 PUSH1 0x1F DUP4 ADD SLT PUSH2 0x443 JUMPI PUSH2 0x442 PUSH2 0x320 JUMP JUMPDEST JUMPDEST DUP2 CALLDATALOAD PUSH2 0x453 DUP5 DUP3 PUSH1 0x20 DUP7 ADD PUSH2 0x3EE JUMP JUMPDEST SWAP2 POP POP SWAP3 SWAP2 POP POP JUMP JUMPDEST PUSH0 DUP2 SWAP1 POP SWAP2 SWAP1 POP JUMP JUMPDEST PUSH2 0x46E DUP2 PUSH2 0x45C JUMP JUMPDEST DUP2 EQ PUSH2 0x478 JUMPI PUSH0 DUP1 REVERT JUMPDEST POP JUMP JUMPDEST PUSH0 DUP2 CALLDATALOAD SWAP1 POP PUSH2 0x489 DUP2 PUSH2 0x465 JUMP JUMPDEST SWAP3 SWAP2 POP POP JUMP JUMPDEST PUSH0 DUP1 PUSH1 0x40 DUP4 DUP6 SUB SLT ISZERO PUSH2 0x4A5 JUMPI PUSH2 0x4A4 PUSH2 0x318 JUMP JUMPDEST JUMPDEST PUSH0 DUP4 ADD CALLDATALOAD PUSH8 0xFFFFFFFFFFFFFFFF DUP2 GT ISZERO PUSH2 0x4C2 JUMPI PUSH2 0x4C1 PUSH2 0x31C JUMP JUMPDEST JUMPDEST PUSH2 0x4CE DUP6 DUP3 DUP7 ADD PUSH2 0x42F JUMP JUMPDEST SWAP3 POP POP PUSH1 0x20 PUSH2 0x4DF DUP6 DUP3 DUP7 ADD PUSH2 0x47B JUMP JUMPDEST SWAP2 POP POP SWAP3 POP SWAP3 SWAP1 POP JUMP JUMPDEST PUSH0 PUSH1 0x20 DUP3 DUP5 SUB SLT ISZERO PUSH2 0x4FE JUMPI PUSH2 0x4FD PUSH2 0x318 JUMP JUMPDEST JUMPDEST PUSH0 PUSH2 0x50B DUP5 DUP3 DUP6 ADD PUSH2 0x47B JUMP JUMPDEST SWAP2 POP POP SWAP3 SWAP2 POP POP JUMP JUMPDEST PUSH0 DUP2 MLOAD SWAP1 POP SWAP2 SWAP1 POP JUMP JUMPDEST PUSH0 DUP3 DUP3 MSTORE PUSH1 0x20 DUP3 ADD SWAP1 POP SWAP3 SWAP2 POP POP JUMP JUMPDEST DUP3 DUP2 DUP4 MCOPY PUSH0 DUP4 DUP4 ADD MSTORE POP POP POP JUMP JUMPDEST PUSH0 PUSH2 0x546 DUP3 PUSH2 0x514 JUMP JUMPDEST PUSH2 0x550 DUP2 DUP6 PUSH2 0x51E JUMP JUMPDEST SWAP4 POP PUSH2 0x560 DUP2 DUP6 PUSH1 0x20 DUP7 ADD PUSH2 0x52E JUMP JUMPDEST PUSH2 0x569 DUP2 PUSH2 0x328 JUMP JUMPDEST DUP5 ADD SWAP2 POP POP SWAP3 SWAP2 POP POP JUMP JUMPDEST PUSH0 PUSH1 0x20 DUP3 ADD SWAP1 POP DUP2 DUP2 SUB PUSH0 DUP4 ADD MSTORE PUSH2 0x58C DUP2 DUP5 PUSH2 0x53C JUMP JUMPDEST SWAP1 POP SWAP3 SWAP2 POP POP JUMP JUMPDEST PUSH32 0x4E487B7100000000000000000000000000000000000000000000000000000000 PUSH0 MSTORE PUSH1 0x22 PUSH1 0x4 MSTORE PUSH1 0x24 PUSH0 REVERT JUMPDEST PUSH0 PUSH1 0x2 DUP3 DIV SWAP1 POP PUSH1 0x1 DUP3 AND DUP1 PUSH2 0x5D8 JUMPI PUSH1 0x7F DUP3 AND SWAP2 POP JUMPDEST PUSH1 0x20 DUP3 LT DUP2 SUB PUSH2 0x5EB JUMPI PUSH2 0x5EA PUSH2 0x594 JUMP JUMPDEST JUMPDEST POP SWAP2 SWAP1 POP JUMP JUMPDEST PUSH0 DUP2 SWAP1 POP DUP2 PUSH0 MSTORE PUSH1 0x20 PUSH0 KECCAK256 SWAP1 POP SWAP2 SWAP1 POP JUMP JUMPDEST PUSH0 PUSH1 0x20 PUSH1 0x1F DUP4 ADD DIV SWAP1 POP SWAP2 SWAP1 POP JUMP JUMPDEST PUSH0 DUP3 DUP3 SHL SWAP1 POP SWAP3 SWAP2 POP POP JUMP JUMPDEST PUSH0 PUSH1 0x8 DUP4 MUL PUSH2 0x64D PUSH32 0xFFFFFFFFFFFFFFFFFFFFFFFFFFFFFFFFFFFFFFFFFFFFFFFFFFFFFFFFFFFFFFFF DUP3 PUSH2 0x612 JUMP JUMPDEST PUSH2 0x657 DUP7 DUP4 PUSH2 0x612 JUMP JUMPDEST SWAP6 POP DUP1 NOT DUP5 AND SWAP4 POP DUP1 DUP7 AND DUP5 OR SWAP3 POP POP POP SWAP4 SWAP3 POP POP POP JUMP JUMPDEST PUSH0 DUP2 SWAP1 POP SWAP2 SWAP1 POP JUMP JUMPDEST PUSH0 PUSH2 0x692 PUSH2 0x68D PUSH2 0x688 DUP5 PUSH2 0x45C JUMP JUMPDEST PUSH2 0x66F JUMP JUMPDEST PUSH2 0x45C JUMP JUMPDEST SWAP1 POP SWAP2 SWAP1 POP JUMP JUMPDEST PUSH0 DUP2 SWAP1 POP SWAP2 SWAP1 POP JUMP JUMPDEST PUSH2 0x6AB DUP4 PUSH2 0x678 JUMP JUMPDEST PUSH2 0x6BF PUSH2 0x6B7 DUP3 PUSH2 0x699 JUMP JUMPDEST DUP5 DUP5 SLOAD PUSH2 0x61E JUMP JUMPDEST DUP3 SSTORE POP POP POP POP JUMP JUMPDEST PUSH0 SWAP1 JUMP JUMPDEST PUSH2 0x6D3 PUSH2 0x6C7 JUMP JUMPDEST PUSH2 0x6DE DUP2 DUP5 DUP5 PUSH2 0x6A2 JUMP JUMPDEST POP POP POP JUMP JUMPDEST JUMPDEST DUP2 DUP2 LT ISZERO PUSH2 0x701 JUMPI PUSH2 0x6F6 PUSH0 DUP3 PUSH2 0x6CB JUMP JUMPDEST PUSH1 0x1 DUP2 ADD SWAP1 POP PUSH2 0x6E4 JUMP JUMPDEST POP POP JUMP JUMPDEST PUSH1 0x1F DUP3 GT ISZERO PUSH2 0x746 JUMPI PUSH2 0x717 DUP2 PUSH2 0x5F1 JUMP JUMPDEST PUSH2 0x720 DUP5 PUSH2 0x603 JUMP JUMPDEST DUP2 ADD PUSH1 0x20 DUP6 LT ISZERO PUSH2 0x72F JUMPI DUP2 SWAP1 POP JUMPDEST PUSH2 0x743 PUSH2 0x73B DUP6 PUSH2 0x603 JUMP JUMPDEST DUP4 ADD DUP3 PUSH2 0x6E3 JUMP JUMPDEST POP POP JUMPDEST POP POP POP JUMP JUMPDEST PUSH0 DUP3 DUP3 SHR SWAP1 POP SWAP3 SWAP2 POP POP JUMP JUMPDEST PUSH0 PUSH2 0x766 PUSH0 NOT DUP5 PUSH1 0x8 MUL PUSH2 0x74B JUMP JUMPDEST NOT DUP1 DUP4 AND SWAP2 POP POP SWAP3 SWAP2 POP POP JUMP JUMPDEST PUSH0 PUSH2 0x77E DUP4 DUP4 PUSH2 0x757 JUMP JUMPDEST SWAP2 POP DUP3 PUSH1 0x2 MUL DUP3 OR SWAP1 POP SWAP3 SWAP2 POP POP JUMP JUMPDEST PUSH2 0x797 DUP3 PUSH2 0x514 JUMP JUMPDEST PUSH8 0xFFFFFFFFFFFFFFFF DUP2 GT ISZERO PUSH2 0x7B0 JUMPI PUSH2 0x7AF PUSH2 0x338 JUMP JUMPDEST JUMPDEST PUSH2 0x7BA DUP3 SLOAD PUSH2 0x5C1 JUMP JUMPDEST PUSH2 0x7C5 DUP3 DUP3 DUP6 PUSH2 0x705 JUMP JUMPDEST PUSH0 PUSH1 0x20 SWAP1 POP PUSH1 0x1F DUP4 GT PUSH1 0x1 DUP2 EQ PUSH2 0x7F6 JUMPI PUSH0 DUP5 ISZERO PUSH2 0x7E4 JUMPI DUP3 DUP8 ADD MLOAD SWAP1 POP JUMPDEST PUSH2 0x7EE DUP6 DUP3 PUSH2 0x773 JUMP JUMPDEST DUP7 SSTORE POP PUSH2 0x855 JUMP JUMPDEST PUSH1 0x1F NOT DUP5 AND PUSH2 0x804 DUP7 PUSH2 0x5F1 JUMP JUMPDEST PUSH0 JUMPDEST DUP3 DUP2 LT ISZERO PUSH2 0x82B JUMPI DUP5 DUP10 ADD MLOAD DUP3 SSTORE PUSH1 0x1 DUP3 ADD SWAP2 POP PUSH1 0x20 DUP6 ADD SWAP5 POP PUSH1 0x20 DUP2 ADD SWAP1 POP PUSH2 0x806 JUMP JUMPDEST DUP7 DUP4 LT ISZERO PUSH2 0x848 JUMPI DUP5 DUP10 ADD MLOAD PUSH2 0x844 PUSH1 0x1F DUP10 AND DUP3 PUSH2 0x757 JUMP JUMPDEST DUP4 SSTORE POP JUMPDEST PUSH1 0x1 PUSH1 0x2 DUP9 MUL ADD DUP9 SSTORE POP POP POP JUMPDEST POP POP POP POP POP POP JUMP JUMPDEST PUSH32 0x4E487B7100000000000000000000000000000000000000000000000000000000 PUSH0 MSTORE PUSH1 0x32 PUSH1 0x4 MSTORE PUSH1 0x24 PUSH0 REVERT JUMPDEST PUSH0 DUP2 SWAP1 POP SWAP3 SWAP2 POP POP JUMP JUMPDEST PUSH0 PUSH2 0x89E DUP3 PUSH2 0x514 JUMP JUMPDEST PUSH2 0x8A8 DUP2 DUP6 PUSH2 0x88A JUMP JUMPDEST SWAP4 POP PUSH2 0x8B8 DUP2 DUP6 PUSH1 0x20 DUP7 ADD PUSH2 0x52E JUMP JUMPDEST DUP1 DUP5 ADD SWAP2 POP POP SWAP3 SWAP2 POP POP JUMP JUMPDEST PUSH32 0x2066726F6D207A696F6E00000000000000000000000000000000000000000000 DUP2 MSTORE POP JUMP JUMPDEST PUSH0 PUSH2 0x8F5 DUP3 DUP5 PUSH2 0x894 JUMP JUMPDEST SWAP2 POP PUSH2 0x900 DUP3 PUSH2 0x8C4 JUMP JUMPDEST PUSH1 0xA DUP3 ADD SWAP2 POP DUP2 SWAP1 POP SWAP3 SWAP2 POP POP JUMP INVALID LOG2 PUSH5 0x6970667358 0x22 SLT KECCAK256 ADD POP DUP9 DELEGATECALL PUSH26 0x598E5161B0FA550E9FABE0CAA6682EB6081CDDC7702605D8309F 0x21 PUSH5 0x736F6C6343 STOP ADDMOD BYTE STOP CALLER "
				},
				"gasEstimates": {
					"creation": {
						"codeDepositCost": "474600",
						"executionCost": "infinite",
						"totalCost": "infinite"
					},
					"external": {
						"say(uint256)": "infinite",
						"set(string,uint256)": "infinite"
					},
					"internal": {
						"addinfo(string memory)": "infinite"
					}
				},
				"methodIdentifiers": {
					"say(uint256)": "c3fad957",
					"set(string,uint256)": "8a42ebe9"
				}
			},
			"storageLayout": {
				"storage": [
					{
						"astId": 4,
						"contract": "test/test.sol:Hello",
						"label": "strvar",
						"offset": 0,
						"slot": "0",
						"type": "t_string_storage"
					},
					{
						"astId": 15,
						"contract": "test/test.sol:Hello",
						"label": "infos",
						"offset": 0,
						"slot": "1",
						"type": "t_array(t_struct(Info)11_storage)dyn_storage"
					}
				],
				"types": {
					"t_address": {
						"encoding": "inplace",
						"label": "address",
						"numberOfBytes": "20"
					},
					"t_array(t_struct(Info)11_storage)dyn_storage": {
						"base": "t_struct(Info)11_storage",
						"encoding": "dynamic_array",
						"label": "struct Hello.Info[]",
						"numberOfBytes": "32"
					},
					"t_string_storage": {
						"encoding": "bytes",
						"label": "string",
						"numberOfBytes": "32"
					},
					"t_struct(Info)11_storage": {
						"encoding": "inplace",
						"label": "struct Hello.Info",
						"members": [
							{
								"astId": 6,
								"contract": "test/test.sol:Hello",
								"label": "phr",
								"offset": 0,
								"slot": "0",
								"type": "t_string_storage"
							},
							{
								"astId": 8,
								"contract": "test/test.sol:Hello",
								"label": "id",
								"offset": 0,
								"slot": "1",
								"type": "t_uint256"
							},
							{
								"astId": 10,
								"contract": "test/test.sol:Hello",
								"label": "addr",
								"offset": 0,
								"slot": "2",
								"type": "t_address"
							}
						],
						"numberOfBytes": "96"
					},
					"t_uint256": {
						"encoding": "inplace",
						"label": "uint256",
						"numberOfBytes": "32"
					}
				}
			},
			"userdoc": {
				"kind": "user",
				"methods": {},
				"version": 1
			}
		}
	}
}