{
	"if_else/test1/test.sol": {
		"If": {
			"abi": [
				{
					"inputs": [
						{
							"internalType": "int256",
							"name": "numa",
							"type": "int256"
						}
					],
					"name": "check",
					"outputs": [
						{
							"internalType": "int256",
							"name": "",
							"type": "int256"
						}
					],
					"stateMutability": "pure",
					"type": "function"
				},
				{
					"inputs": [
						{
							"internalType": "int256",
							"name": "_numa",
							"type": "int256"
						}
					],
					"name": "checkin",
					"outputs": [
						{
							"internalType": "uint256",
							"name": "",
							"type": "uint256"
						}
					],
					"stateMutability": "pure",
					"type": "function"
				}
			],
			"devdoc": {
				"kind": "dev",
				"methods": {},
				"version": 1
			},
			"evm": {
				"assembly": "    /* \"if_else/test1/test.sol\":60:386  contract If {... */\n  mstore(0x40, 0x80)\n  callvalue\n  dup1\n  iszero\n  tag_1\n  jumpi\n  0x00\n  dup1\n  revert\ntag_1:\n  pop\n  dataSize(sub_0)\n  dup1\n  dataOffset(sub_0)\n  0x00\n  codecopy\n  0x00\n  return\nstop\n\nsub_0: assembly {\n        /* \"if_else/test1/test.sol\":60:386  contract If {... */\n      mstore(0x40, 0x80)\n      callvalue\n      dup1\n      iszero\n      tag_1\n      jumpi\n      0x00\n      dup1\n      revert\n    tag_1:\n      pop\n      jumpi(tag_2, lt(calldatasize, 0x04))\n      shr(0xe0, calldataload(0x00))\n      dup1\n      0x55b10457\n      eq\n      tag_3\n      jumpi\n      dup1\n      0x9943d669\n      eq\n      tag_4\n      jumpi\n    tag_2:\n      0x00\n      dup1\n      revert\n        /* \"if_else/test1/test.sol\":291:383  function checkin(int _numa) public pure returns(uint){... */\n    tag_3:\n      tag_5\n      0x04\n      dup1\n      calldatasize\n      sub\n      dup2\n      add\n      swap1\n      tag_6\n      swap2\n      swap1\n      tag_7\n      jump\t// in\n    tag_6:\n      tag_8\n      jump\t// in\n    tag_5:\n      mload(0x40)\n      tag_9\n      swap2\n      swap1\n      tag_10\n      jump\t// in\n    tag_9:\n      mload(0x40)\n      dup1\n      swap2\n      sub\n      swap1\n      return\n        /* \"if_else/test1/test.sol\":79:285  function check(int numa) public pure returns(int){... */\n    tag_4:\n      tag_11\n      0x04\n      dup1\n      calldatasize\n      sub\n      dup2\n      add\n      swap1\n      tag_12\n      swap2\n      swap1\n      tag_7\n      jump\t// in\n    tag_12:\n      tag_13\n      jump\t// in\n    tag_11:\n      mload(0x40)\n      tag_14\n      swap2\n      swap1\n      tag_15\n      jump\t// in\n    tag_14:\n      mload(0x40)\n      dup1\n      swap2\n      sub\n      swap1\n      return\n        /* \"if_else/test1/test.sol\":291:383  function checkin(int _numa) public pure returns(uint){... */\n    tag_8:\n        /* \"if_else/test1/test.sol\":339:343  uint */\n      0x00\n        /* \"if_else/test1/test.sol\":366:367  0 */\n      dup1\n        /* \"if_else/test1/test.sol\":358:363  _numa */\n      dup3\n        /* \"if_else/test1/test.sol\":358:367  _numa < 0 */\n      slt\n        /* \"if_else/test1/test.sol\":358:375  _numa < 0 ? 1 : 2 */\n      tag_17\n      jumpi\n        /* \"if_else/test1/test.sol\":374:375  2 */\n      0x02\n        /* \"if_else/test1/test.sol\":358:375  _numa < 0 ? 1 : 2 */\n      jump(tag_18)\n    tag_17:\n        /* \"if_else/test1/test.sol\":370:371  1 */\n      0x01\n        /* \"if_else/test1/test.sol\":358:375  _numa < 0 ? 1 : 2 */\n    tag_18:\n        /* \"if_else/test1/test.sol\":351:375  return _numa < 0 ? 1 : 2 */\n      0xff\n      and\n      swap1\n      pop\n        /* \"if_else/test1/test.sol\":291:383  function checkin(int _numa) public pure returns(uint){... */\n      swap2\n      swap1\n      pop\n      jump\t// out\n        /* \"if_else/test1/test.sol\":79:285  function check(int numa) public pure returns(int){... */\n    tag_13:\n        /* \"if_else/test1/test.sol\":124:127  int */\n      0x00\n        /* \"if_else/test1/test.sol\":147:148  0 */\n      dup1\n        /* \"if_else/test1/test.sol\":142:146  numa */\n      dup3\n        /* \"if_else/test1/test.sol\":142:148  numa<0 */\n      slt\n        /* \"if_else/test1/test.sol\":139:278  if(numa<0){... */\n      iszero\n      tag_20\n      jumpi\n        /* \"if_else/test1/test.sol\":171:173  -1 */\n      0xffffffffffffffffffffffffffffffffffffffffffffffffffffffffffffffff\n        /* \"if_else/test1/test.sol\":164:173  return -1 */\n      swap1\n      pop\n      jump(tag_19)\n        /* \"if_else/test1/test.sol\":139:278  if(numa<0){... */\n    tag_20:\n        /* \"if_else/test1/test.sol\":199:200  0 */\n      0x00\n        /* \"if_else/test1/test.sol\":193:197  numa */\n      dup3\n        /* \"if_else/test1/test.sol\":193:200  numa==0 */\n      sub\n        /* \"if_else/test1/test.sol\":190:278  if(numa==0){... */\n      tag_22\n      jumpi\n        /* \"if_else/test1/test.sol\":223:224  0 */\n      0x00\n        /* \"if_else/test1/test.sol\":216:224  return 0 */\n      swap1\n      pop\n      jump(tag_19)\n        /* \"if_else/test1/test.sol\":190:278  if(numa==0){... */\n    tag_22:\n        /* \"if_else/test1/test.sol\":262:266  numa */\n      dup2\n        /* \"if_else/test1/test.sol\":255:266  return numa */\n      swap1\n      pop\n        /* \"if_else/test1/test.sol\":79:285  function check(int numa) public pure returns(int){... */\n    tag_19:\n      swap2\n      swap1\n      pop\n      jump\t// out\n        /* \"#utility.yul\":88:205   */\n    tag_25:\n        /* \"#utility.yul\":197:198   */\n      0x00\n        /* \"#utility.yul\":194:195   */\n      dup1\n        /* \"#utility.yul\":187:199   */\n      revert\n        /* \"#utility.yul\":334:410   */\n    tag_27:\n        /* \"#utility.yul\":370:377   */\n      0x00\n        /* \"#utility.yul\":399:404   */\n      dup2\n        /* \"#utility.yul\":388:404   */\n      swap1\n      pop\n        /* \"#utility.yul\":334:410   */\n      swap2\n      swap1\n      pop\n      jump\t// out\n        /* \"#utility.yul\":416:536   */\n    tag_28:\n        /* \"#utility.yul\":488:511   */\n      tag_39\n        /* \"#utility.yul\":505:510   */\n      dup2\n        /* \"#utility.yul\":488:511   */\n      tag_27\n      jump\t// in\n    tag_39:\n        /* \"#utility.yul\":481:486   */\n      dup2\n        /* \"#utility.yul\":478:512   */\n      eq\n        /* \"#utility.yul\":468:530   */\n      tag_40\n      jumpi\n        /* \"#utility.yul\":526:527   */\n      0x00\n        /* \"#utility.yul\":523:524   */\n      dup1\n        /* \"#utility.yul\":516:528   */\n      revert\n        /* \"#utility.yul\":468:530   */\n    tag_40:\n        /* \"#utility.yul\":416:536   */\n      pop\n      jump\t// out\n        /* \"#utility.yul\":542:679   */\n    tag_29:\n        /* \"#utility.yul\":587:592   */\n      0x00\n        /* \"#utility.yul\":625:631   */\n      dup2\n        /* \"#utility.yul\":612:632   */\n      calldataload\n        /* \"#utility.yul\":603:632   */\n      swap1\n      pop\n        /* \"#utility.yul\":641:673   */\n      tag_42\n        /* \"#utility.yul\":667:672   */\n      dup2\n        /* \"#utility.yul\":641:673   */\n      tag_28\n      jump\t// in\n    tag_42:\n        /* \"#utility.yul\":542:679   */\n      swap3\n      swap2\n      pop\n      pop\n      jump\t// out\n        /* \"#utility.yul\":685:1012   */\n    tag_7:\n        /* \"#utility.yul\":743:749   */\n      0x00\n        /* \"#utility.yul\":792:794   */\n      0x20\n        /* \"#utility.yul\":780:789   */\n      dup3\n        /* \"#utility.yul\":771:778   */\n      dup5\n        /* \"#utility.yul\":767:790   */\n      sub\n        /* \"#utility.yul\":763:795   */\n      slt\n        /* \"#utility.yul\":760:879   */\n      iszero\n      tag_44\n      jumpi\n        /* \"#utility.yul\":798:877   */\n      tag_45\n      tag_25\n      jump\t// in\n    tag_45:\n        /* \"#utility.yul\":760:879   */\n    tag_44:\n        /* \"#utility.yul\":918:919   */\n      0x00\n        /* \"#utility.yul\":943:995   */\n      tag_46\n        /* \"#utility.yul\":987:994   */\n      dup5\n        /* \"#utility.yul\":978:984   */\n      dup3\n        /* \"#utility.yul\":967:976   */\n      dup6\n        /* \"#utility.yul\":963:985   */\n      add\n        /* \"#utility.yul\":943:995   */\n      tag_29\n      jump\t// in\n    tag_46:\n        /* \"#utility.yul\":933:995   */\n      swap2\n      pop\n        /* \"#utility.yul\":889:1005   */\n      pop\n        /* \"#utility.yul\":685:1012   */\n      swap3\n      swap2\n      pop\n      pop\n      jump\t// out\n        /* \"#utility.yul\":1018:1095   */\n    tag_30:\n        /* \"#utility.yul\":1055:1062   */\n      0x00\n        /* \"#utility.yul\":1084:1089   */\n      dup2\n        /* \"#utility.yul\":1073:1089   */\n      swap1\n      pop\n        /* \"#utility.yul\":1018:1095   */\n      swap2\n      swap1\n      pop\n      jump\t// out\n        /* \"#utility.yul\":1101:1219   */\n    tag_31:\n        /* \"#utility.yul\":1188:1212   */\n      tag_49\n        /* \"#utility.yul\":1206:1211   */\n      dup2\n        /* \"#utility.yul\":1188:1212   */\n      tag_30\n      jump\t// in\n    tag_49:\n        /* \"#utility.yul\":1183:1186   */\n      dup3\n        /* \"#utility.yul\":1176:1213   */\n      mstore\n        /* \"#utility.yul\":1101:1219   */\n      pop\n      pop\n      jump\t// out\n        /* \"#utility.yul\":1225:1447   */\n    tag_10:\n        /* \"#utility.yul\":1318:1322   */\n      0x00\n        /* \"#utility.yul\":1356:1358   */\n      0x20\n        /* \"#utility.yul\":1345:1354   */\n      dup3\n        /* \"#utility.yul\":1341:1359   */\n      add\n        /* \"#utility.yul\":1333:1359   */\n      swap1\n      pop\n        /* \"#utility.yul\":1369:1440   */\n      tag_51\n        /* \"#utility.yul\":1437:1438   */\n      0x00\n        /* \"#utility.yul\":1426:1435   */\n      dup4\n        /* \"#utility.yul\":1422:1439   */\n      add\n        /* \"#utility.yul\":1413:1419   */\n      dup5\n        /* \"#utility.yul\":1369:1440   */\n      tag_31\n      jump\t// in\n    tag_51:\n        /* \"#utility.yul\":1225:1447   */\n      swap3\n      swap2\n      pop\n      pop\n      jump\t// out\n        /* \"#utility.yul\":1453:1568   */\n    tag_32:\n        /* \"#utility.yul\":1538:1561   */\n      tag_53\n        /* \"#utility.yul\":1555:1560   */\n      dup2\n        /* \"#utility.yul\":1538:1561   */\n      tag_27\n      jump\t// in\n    tag_53:\n        /* \"#utility.yul\":1533:1536   */\n      dup3\n        /* \"#utility.yul\":1526:1562   */\n      mstore\n        /* \"#utility.yul\":1453:1568   */\n      pop\n      pop\n      jump\t// out\n        /* \"#utility.yul\":1574:1792   */\n    tag_15:\n        /* \"#utility.yul\":1665:1669   */\n      0x00\n        /* \"#utility.yul\":1703:1705   */\n      0x20\n        /* \"#utility.yul\":1692:1701   */\n      dup3\n        /* \"#utility.yul\":1688:1706   */\n      add\n        /* \"#utility.yul\":1680:1706   */\n      swap1\n      pop\n        /* \"#utility.yul\":1716:1785   */\n      tag_55\n        /* \"#utility.yul\":1782:1783   */\n      0x00\n        /* \"#utility.yul\":1771:1780   */\n      dup4\n        /* \"#utility.yul\":1767:1784   */\n      add\n        /* \"#utility.yul\":1758:1764   */\n      dup5\n        /* \"#utility.yul\":1716:1785   */\n      tag_32\n      jump\t// in\n    tag_55:\n        /* \"#utility.yul\":1574:1792   */\n      swap3\n      swap2\n      pop\n      pop\n      jump\t// out\n\n    auxdata: 0xa2646970667358221220accc1299d48ed9e3b596155d8977ad6b4a3f9ee68e926dbaeeabfa3f5d3592a664736f6c634300081a0033\n}\n",
				"bytecode": {
					"linkReferences": {},
					"object": "6080604052348015600e575f80fd5b506101ee8061001c5f395ff3fe608060405234801561000f575f80fd5b5060043610610034575f3560e01c806355b10457146100385780639943d66914610068575b5f80fd5b610052600480360381019061004d9190610134565b610098565b60405161005f9190610177565b60405180910390f35b610082600480360381019061007d9190610134565b6100b4565b60405161008f919061019f565b60405180910390f35b5f8082126100a75760026100aa565b60015b60ff169050919050565b5f808212156100e5577fffffffffffffffffffffffffffffffffffffffffffffffffffffffffffffffff90506100f8565b5f82036100f4575f90506100f8565b8190505b919050565b5f80fd5b5f819050919050565b61011381610101565b811461011d575f80fd5b50565b5f8135905061012e8161010a565b92915050565b5f60208284031215610149576101486100fd565b5b5f61015684828501610120565b91505092915050565b5f819050919050565b6101718161015f565b82525050565b5f60208201905061018a5f830184610168565b92915050565b61019981610101565b82525050565b5f6020820190506101b25f830184610190565b9291505056fea2646970667358221220accc1299d48ed9e3b596155d8977ad6b4a3f9ee68e926dbaeeabfa3f5d3592a664736f6c634300081a0033",
					"opcodes": "PUSH1 0x80 PUSH1 0x40 MSTORE CALLVALUE DUP1 ISZERO PUSH1 0xE JUMPI PUSH0 DUP1 REVERT JUMPDEST POP PUSH2 0x1EE DUP1 PUSH2 0x1C PUSH0 CODECOPY PUSH0 RETURN INVALID PUSH1 0x80 PUSH1 0x40 MSTORE CALLVALUE DUP1 ISZERO PUSH2 0xF JUMPI PUSH0 DUP1 REVERT JUMPDEST POP PUSH1 0x4 CALLDATASIZE LT PUSH2 0x34 JUMPI PUSH0 CALLDATALOAD PUSH1 0xE0 SHR DUP1 PUSH4 0x55B10457 EQ PUSH2 0x38 JUMPI DUP1 PUSH4 0x9943D669 EQ PUSH2 0x68 JUMPI JUMPDEST PUSH0 DUP1 REVERT JUMPDEST PUSH2 0x52 PUSH1 0x4 DUP1 CALLDATASIZE SUB DUP2 ADD SWAP1 PUSH2 0x4D SWAP2 SWAP1 PUSH2 0x134 JUMP JUMPDEST PUSH2 0x98 JUMP JUMPDEST PUSH1 0x40 MLOAD PUSH2 0x5F SWAP2 SWAP1 PUSH2 0x177 JUMP JUMPDEST PUSH1 0x40 MLOAD DUP1 SWAP2 SUB SWAP1 RETURN JUMPDEST PUSH2 0x82 PUSH1 0x4 DUP1 CALLDATASIZE SUB DUP2 ADD SWAP1 PUSH2 0x7D SWAP2 SWAP1 PUSH2 0x134 JUMP JUMPDEST PUSH2 0xB4 JUMP JUMPDEST PUSH1 0x40 MLOAD PUSH2 0x8F SWAP2 SWAP1 PUSH2 0x19F JUMP JUMPDEST PUSH1 0x40 MLOAD DUP1 SWAP2 SUB SWAP1 RETURN JUMPDEST PUSH0 DUP1 DUP3 SLT PUSH2 0xA7 JUMPI PUSH1 0x2 PUSH2 0xAA JUMP JUMPDEST PUSH1 0x1 JUMPDEST PUSH1 0xFF AND SWAP1 POP SWAP2 SWAP1 POP JUMP JUMPDEST PUSH0 DUP1 DUP3 SLT ISZERO PUSH2 0xE5 JUMPI PUSH32 0xFFFFFFFFFFFFFFFFFFFFFFFFFFFFFFFFFFFFFFFFFFFFFFFFFFFFFFFFFFFFFFFF SWAP1 POP PUSH2 0xF8 JUMP JUMPDEST PUSH0 DUP3 SUB PUSH2 0xF4 JUMPI PUSH0 SWAP1 POP PUSH2 0xF8 JUMP JUMPDEST DUP2 SWAP1 POP JUMPDEST SWAP2 SWAP1 POP JUMP JUMPDEST PUSH0 DUP1 REVERT JUMPDEST PUSH0 DUP2 SWAP1 POP SWAP2 SWAP1 POP JUMP JUMPDEST PUSH2 0x113 DUP2 PUSH2 0x101 JUMP JUMPDEST DUP2 EQ PUSH2 0x11D JUMPI PUSH0 DUP1 REVERT JUMPDEST POP JUMP JUMPDEST PUSH0 DUP2 CALLDATALOAD SWAP1 POP PUSH2 0x12E DUP2 PUSH2 0x10A JUMP JUMPDEST SWAP3 SWAP2 POP POP JUMP JUMPDEST PUSH0 PUSH1 0x20 DUP3 DUP5 SUB SLT ISZERO PUSH2 0x149 JUMPI PUSH2 0x148 PUSH2 0xFD JUMP JUMPDEST JUMPDEST PUSH0 PUSH2 0x156 DUP5 DUP3 DUP6 ADD PUSH2 0x120 JUMP JUMPDEST SWAP2 POP POP SWAP3 SWAP2 POP POP JUMP JUMPDEST PUSH0 DUP2 SWAP1 POP SWAP2 SWAP1 POP JUMP JUMPDEST PUSH2 0x171 DUP2 PUSH2 0x15F JUMP JUMPDEST DUP3 MSTORE POP POP JUMP JUMPDEST PUSH0 PUSH1 0x20 DUP3 ADD SWAP1 POP PUSH2 0x18A PUSH0 DUP4 ADD DUP5 PUSH2 0x168 JUMP JUMPDEST SWAP3 SWAP2 POP POP JUMP JUMPDEST PUSH2 0x199 DUP2 PUSH2 0x101 JUMP JUMPDEST DUP3 MSTORE POP POP JUMP JUMPDEST PUSH0 PUSH1 0x20 DUP3 ADD SWAP1 POP PUSH2 0x1B2 PUSH0 DUP4 ADD DUP5 PUSH2 0x190 JUMP JUMPDEST SWAP3 SWAP2 POP POP JUMP INVALID LOG2 PUSH5 0x6970667358 0x22 SLT KECCAK256 0xAC 0xCC SLT SWAP10 0xD4 DUP15 0xD9 0xE3 0xB5 SWAP7 ISZERO TSTORE DUP10 PUSH24 0xAD6B4A3F9EE68E926DBAEEABFA3F5D3592A664736F6C6343 STOP ADDMOD BYTE STOP CALLER "
				},
				"gasEstimates": {
					"creation": {
						"codeDepositCost": "98800",
						"executionCost": "145",
						"totalCost": "98945"
					},
					"external": {
						"check(int256)": "infinite",
						"checkin(int256)": "611"
					}
				},
				"methodIdentifiers": {
					"check(int256)": "9943d669",
					"checkin(int256)": "55b10457"
				}
			},
			"storageLayout": {
				"storage": [],
				"types": null
			},
			"userdoc": {
				"kind": "user",
				"methods": {},
				"version": 1
			}
		}
	}
}