{
	"data": {
		"bytecode": {
			"linkReferences": {},
			"object": "60c0604052348015600e575f80fd5b503373ffffffffffffffffffffffffffffffffffffffff1660808173ffffffffffffffffffffffffffffffffffffffff16815250507f800000000000000000000000000000000000000000000000000000000000000060a0818152505060805160a0516102186100975f395f818160c3015260ec01525f818160a2015261011001526102185ff3fe608060405234801561000f575f80fd5b506004361061003f575f3560e01c80637082ccfd14610043578063a792b6ec14610062578063df68798214610080575b5f80fd5b61004b61009e565b604051610059929190610189565b60405180910390f35b61006a6100ea565b60405161007791906101b0565b60405180910390f35b61008861010e565b60405161009591906101c9565b60405180910390f35b5f807f00000000000000000000000000000000000000000000000000000000000000007f0000000000000000000000000000000000000000000000000000000000000000915091509091565b7f000000000000000000000000000000000000000000000000000000000000000081565b7f000000000000000000000000000000000000000000000000000000000000000081565b5f73ffffffffffffffffffffffffffffffffffffffff82169050919050565b5f61015b82610132565b9050919050565b61016b81610151565b82525050565b5f819050919050565b61018381610171565b82525050565b5f60408201905061019c5f830185610162565b6101a9602083018461017a565b9392505050565b5f6020820190506101c35f83018461017a565b92915050565b5f6020820190506101dc5f830184610162565b9291505056fea2646970667358221220945abba962694a60ffac4cf3d60780c4289ae237e789b936b40316071900c82764736f6c634300081a0033",
			"opcodes": "PUSH1 0xC0 PUSH1 0x40 MSTORE CALLVALUE DUP1 ISZERO PUSH1 0xE JUMPI PUSH0 DUP1 REVERT JUMPDEST POP CALLER PUSH20 0xFFFFFFFFFFFFFFFFFFFFFFFFFFFFFFFFFFFFFFFF AND PUSH1 0x80 DUP2 PUSH20 0xFFFFFFFFFFFFFFFFFFFFFFFFFFFFFFFFFFFFFFFF AND DUP2 MSTORE POP POP PUSH32 0x8000000000000000000000000000000000000000000000000000000000000000 PUSH1 0xA0 DUP2 DUP2 MSTORE POP POP PUSH1 0x80 MLOAD PUSH1 0xA0 MLOAD PUSH2 0x218 PUSH2 0x97 PUSH0 CODECOPY PUSH0 DUP2 DUP2 PUSH1 0xC3 ADD MSTORE PUSH1 0xEC ADD MSTORE PUSH0 DUP2 DUP2 PUSH1 0xA2 ADD MSTORE PUSH2 0x110 ADD MSTORE PUSH2 0x218 PUSH0 RETURN INVALID PUSH1 0x80 PUSH1 0x40 MSTORE CALLVALUE DUP1 ISZERO PUSH2 0xF JUMPI PUSH0 DUP1 REVERT JUMPDEST POP PUSH1 0x4 CALLDATASIZE LT PUSH2 0x3F JUMPI PUSH0 CALLDATALOAD PUSH1 0xE0 SHR DUP1 PUSH4 0x7082CCFD EQ PUSH2 0x43 JUMPI DUP1 PUSH4 0xA792B6EC EQ PUSH2 0x62 JUMPI DUP1 PUSH4 0xDF687982 EQ PUSH2 0x80 JUMPI JUMPDEST PUSH0 DUP1 REVERT JUMPDEST PUSH2 0x4B PUSH2 0x9E JUMP JUMPDEST PUSH1 0x40 MLOAD PUSH2 0x59 SWAP3 SWAP2 SWAP1 PUSH2 0x189 JUMP JUMPDEST PUSH1 0x40 MLOAD DUP1 SWAP2 SUB SWAP1 RETURN JUMPDEST PUSH2 0x6A PUSH2 0xEA JUMP JUMPDEST PUSH1 0x40 MLOAD PUSH2 0x77 SWAP2 SWAP1 PUSH2 0x1B0 JUMP JUMPDEST PUSH1 0x40 MLOAD DUP1 SWAP2 SUB SWAP1 RETURN JUMPDEST PUSH2 0x88 PUSH2 0x10E JUMP JUMPDEST PUSH1 0x40 MLOAD PUSH2 0x95 SWAP2 SWAP1 PUSH2 0x1C9 JUMP JUMPDEST PUSH1 0x40 MLOAD DUP1 SWAP2 SUB SWAP1 RETURN JUMPDEST PUSH0 DUP1 PUSH32 0x0 PUSH32 0x0 SWAP2 POP SWAP2 POP SWAP1 SWAP2 JUMP JUMPDEST PUSH32 0x0 DUP2 JUMP JUMPDEST PUSH32 0x0 DUP2 JUMP JUMPDEST PUSH0 PUSH20 0xFFFFFFFFFFFFFFFFFFFFFFFFFFFFFFFFFFFFFFFF DUP3 AND SWAP1 POP SWAP2 SWAP1 POP JUMP JUMPDEST PUSH0 PUSH2 0x15B DUP3 PUSH2 0x132 JUMP JUMPDEST SWAP1 POP SWAP2 SWAP1 POP JUMP JUMPDEST PUSH2 0x16B DUP2 PUSH2 0x151 JUMP JUMPDEST DUP3 MSTORE POP POP JUMP JUMPDEST PUSH0 DUP2 SWAP1 POP SWAP2 SWAP1 POP JUMP JUMPDEST PUSH2 0x183 DUP2 PUSH2 0x171 JUMP JUMPDEST DUP3 MSTORE POP POP JUMP JUMPDEST PUSH0 PUSH1 0x40 DUP3 ADD SWAP1 POP PUSH2 0x19C PUSH0 DUP4 ADD DUP6 PUSH2 0x162 JUMP JUMPDEST PUSH2 0x1A9 PUSH1 0x20 DUP4 ADD DUP5 PUSH2 0x17A JUMP JUMPDEST SWAP4 SWAP3 POP POP POP JUMP JUMPDEST PUSH0 PUSH1 0x20 DUP3 ADD SWAP1 POP PUSH2 0x1C3 PUSH0 DUP4 ADD DUP5 PUSH2 0x17A JUMP JUMPDEST SWAP3 SWAP2 POP POP JUMP JUMPDEST PUSH0 PUSH1 0x20 DUP3 ADD SWAP1 POP PUSH2 0x1DC PUSH0 DUP4 ADD DUP5 PUSH2 0x162 JUMP JUMPDEST SWAP3 SWAP2 POP POP JUMP INVALID LOG2 PUSH5 0x6970667358 0x22 SLT KECCAK256 SWAP5 GAS 0xBB 0xA9 PUSH3 0x694A60 SELFDESTRUCT 0xAC 0x4C RETURN 0xD6 SMOD DUP1 0xC4 0x28 SWAP11 0xE2 CALLDATACOPY 0xE7 DUP10 0xB9 CALLDATASIZE 0xB4 SUB AND SMOD NOT STOP 0xC8 0x27 PUSH5 0x736F6C6343 STOP ADDMOD BYTE STOP CALLER "
		},
		"gasEstimates": {
			"creation": {
				"codeDepositCost": "107200",
				"executionCost": "infinite",
				"totalCost": "infinite"
			},
			"external": {
				"MY_ADDRESS2()": "infinite",
				"numb()": "infinite",
				"show_immutable()": "infinite"
			}
		},
		"methodIdentifiers": {
			"MY_ADDRESS2()": "df687982",
			"numb()": "a792b6ec",
			"show_immutable()": "7082ccfd"
		}
	},
	"abi": [
		{
			"inputs": [],
			"stateMutability": "nonpayable",
			"type": "constructor"
		},
		{
			"inputs": [],
			"name": "MY_ADDRESS2",
			"outputs": [
				{
					"internalType": "address",
					"name": "",
					"type": "address"
				}
			],
			"stateMutability": "view",
			"type": "function"
		},
		{
			"inputs": [],
			"name": "numb",
			"outputs": [
				{
					"internalType": "int256",
					"name": "",
					"type": "int256"
				}
			],
			"stateMutability": "view",
			"type": "function"
		},
		{
			"inputs": [],
			"name": "show_immutable",
			"outputs": [
				{
					"internalType": "address",
					"name": "",
					"type": "address"
				},
				{
					"internalType": "int256",
					"name": "",
					"type": "int256"
				}
			],
			"stateMutability": "view",
			"type": "function"
		}
	]
}